:020000040800F2
:102000005850002041220008492200084B220008B5
:102010004D2200084F220008512200080000000055
:102020000000000000000000000000005322000833
:1020300055220008000000004F230008D97700084F
:102040005B2200085B2200085B2200085B2200087C
:102050005B2200085B2200085B2200085B2200086C
:102060005B2200085B2200085B2200081147000881
:102070005B2200085B2200085B2200085B2200084C
:102080005B2200085B2200085B2200085B2200083C
:102090005B2200085B2200085B2200085B2200082C
:1020A0005B2200085B2200085B2200085B2200081C
:1020B0005B22000871A300085B2200085B22000875
:1020C0005B2200085B2200085B2200085B220008FC
:1020D0005B2200085B2200085B2200085B220008EC
:1020E0005B2200085B2200085B2200085B220008DC
:1020F0005B2200085B2200085B2200085B220008CC
:102100005B2200085B2200085B2200085B220008BB
:10211000A1A800085B2200085B2200085B220008DF
:102120005B2200085B2200085B2200085B2200089B
:1021300000F002F800F05AF80AA090E8000C82447F
:102140008344AAF10107DA4501D100F04FF8AFF25C
:10215000090EBAE80F0013F0010F18BFFB1A43F085
:10216000010318475CB000007CB000000A444FF047
:10217000000C10F8013B13F0070408BF10F8014BE6
:102180001D1108BF10F8015B641E05D010F8016B2B
:10219000641E01F8016BF9D113F0080F1EBF10F88F
:1021A000014BAD1C0C1B09D16D1E58BF01F801CBB2
:1021B000FAD505E014F8016B01F8016B6D1EF9D535
:1021C0009142D6D37047000000230024002500264A
:1021D000103A28BF78C1FBD8520728BF30C148BF8A
:1021E0000B6070471FB51FBD10B510BD00F05EF845
:1021F0001146FFF7F7FF09F003FA00F07CF803B48B
:10220000FFF7F2FF03BC00F07FF8000072B67047E2
:1022100062B67047EFF3108072B6704780F3108893
:10222000704730BF704720BF7047B0FA80F07047EA
:1022300090FAA0F0B0FA80F0704790FAA0F07047E2
:102240000948804709480047FEE7FEE7FEE7FEE74A
:10225000FEE7FEE7FEE7FEE7FEE7FEE70448054986
:10226000054A064B70470000A1A200083121000872
:10227000584A002058500020584C0020584C00204C
:1022800070477047704710B500F008F8006810BD3F
:1022900010B5044600F002F8046010BD0048704715
:1022A000F849002000487047F84900207546FFF7BC
:1022B000F9FFAE4605006946534620F00700854603
:1022C00018B020B5FFF7CAFFBDE820404FF0000668
:1022D0004FF000074FF000084FF0000B21F007010E
:1022E000AC46ACE8C009ACE8C009ACE8C009ACE851
:1022F000C0098D46704710B50446AFF300802046F4
:10230000BDE81040FFF77BBF01491820ABBEFEE7D8
:1023100026000200704700001D484FF0FF010170C9
:10232000002080F309881B48016881F308881A4857
:102330004FF08051016062B6FEE717484FF08051C0
:102340000160704714484FF080510160704772B6C9
:10235000EFF3098028B1203880E8F00F0F490968B1
:10236000086000B50E4880475DF804EB0D480E4943
:102370000A78027009480D490A680260106890E8FE
:10238000F00F203080F309884EF0F40E62B67047EB
:1023900022ED00E06000002004ED00E05800002085
:1023A000597600082D0000202E0000205C0000203F
:1023B00010B502210F4800F0F5F800210E4802F098
:1023C00047FA32200C490839C86001210A4802F056
:1023D0003FFA0121074800F0F3F80648083000688A
:1023E00040F002000349083108600121014800F073
:1023F00086F910BD002401400800024000B591B0EC
:102400000121480206F082FB0121082006F07EFB34
:102410000121102006F07AFB4FF4004006F04AFB41
:102420000120ADF8400000208DF8430010A9584865
:1024300002F0CAFD0220ADF8400000208DF84300F4
:1024400010A9534802F0C0FD0120ADF84000002063
:102450008DF8430010A94F4802F0B6FD0820ADF8F2
:10246000400000208DF8430010A94A4802F0ACFD5E
:102470000420ADF8400000208DF8430010A9454825
:1024800002F0A2FD0121084606F020FB4248009020
:1024900042480190002002903220039000200490D6
:1024A0008020059040000690800007900020089052
:1024B0004FF40050099000200A906946384802F015
:1024C000F2F90121364802F0C3F901220221344811
:1024D00002F0E0F900200B9001208DF830008DF81B
:1024E00031004FF460200D9000200E9005208DF8F3
:1024F0003C000BA928484C3800F078F8072301224B
:10250000082125484C3800F099F8072302220921B8
:1025100021484C3800F092F8072303220A211E4874
:102520004C3800F08BF8072304220C211A484C3851
:1025300000F084F8072305220D2117484C3800F0DD
:102540007DF8012114484C3800F03AF80121124876
:102550004C3800F02AF810484C3800F0CBF800BF97
:102560000D484C3800F037F80028F9D10A484C38AB
:1025700000F0D0F800BF08484C3800F02CF80028D4
:10258000F9D1012104484C3800F0B9F811B000BD70
:10259000000C0140001001404C240140684900201B
:1025A00008000240CA430260704721B1826842F0CD
:1025B0000102826003E0826822F0010282607047BB
:1025C00021B1826842F48072826003E0826822F462
:1025D000807282607047014600208A6802F004021F
:1025E0000AB1012000E000207047000030B502462B
:1025F0000020002350680F4C20400D790C6844EAFD
:1026000005242043506090680B4C2040D1E90254CF
:102610002C434D7944EA450420439060D06A20F46D
:1026200070000C7C641EE4B2234340EA0350D06285
:1026300030BD0000FFFEF0FFFDF7F1FFF0B50446EE
:102640000D4600200021092D11DDE068A5F10A06E4
:1026500006EB4607072606FA07F18843A5F10A06A6
:1026600006EB460603FA06F10843E0600CE0206939
:1026700005EB4507072606FA07F1884305EB4506F3
:1026800003FA06F108432061072A0FDA606B561E31
:1026900006EB86071F2606FA07F18843561E06EB4F
:1026A000860605FA06F10843606322E00D2A0FDA78
:1026B000206BD61F06EB86071F2606FA07F1884314
:1026C000D61F06EB860605FA06F10843206310E0E4
:1026D000E06AA2F10D0606EB86071F2606FA07F14F
:1026E0008843A2F10D0606EB860605FA06F10843BB
:1026F000E062F0BD816841F008018160704721B15E
:10270000826842F4A002826003E0826822F4A002A0
:1027100082607047816841F0040181607047000069
:1027200053485449086054484860544888605448A5
:10273000C860544808615448486154488861544806
:10274000C8615448086254484862544888625448F2
:10275000C8625448086354484863544888635448DE
:10276000C8655448086654484866544888665448C2
:10277000C866544808675448C1F884005348C1F8F3
:1027800088005348C1F898005248C1F89C0052484C
:10279000C1F8A0005148C1F8AC005148C1F8B000E0
:1027A0005048C1F8B4005048C1F8B8004F48C1F8CB
:1027B000BC004F48C1F8C0004E48C1F8C4004E48A4
:1027C000C1F8C8004D48C1F8CC004D48C1F8D00050
:1027D0004C48C1F8DC004C48C1F8E0004B48C1F857
:1027E000E4004B48C1F8E8004A48C1F8EC004A4808
:1027F000C1F844014948C1F848014948C1F85001AD
:102800004848C1F854014848C1F864014748C1F834
:1028100068014748C1F86C014648C1F87001464854
:10282000C1F874014548C1F878014548C1F88C01E8
:102830004448C1F890014448C1F894014348C1F8A4
:1028400098014348C1F89C014248C1F8A0014248A0
:10285000C1F8A4014148C1F8A8014148C1F8BC0130
:102860004048C1F8C0014048C1F8C40170470000A9
:10287000498C000858420020659B0008859B000891
:10288000E99C0008099D00086D8C0008F98F00087C
:102890008D8C00089D8C0008D5890008E58900080A
:1028A000BD8E0008CD8E0008558D0008658D00088E
:1028B0003D9900086598000845970008A59700080D
:1028C00005980008C598000889960008658F0008DB
:1028D000FD8C0008518F0008AD8C00080D96000893
:1028E00029960008F5920008119300080992000843
:1028F000259200089D990008B999000839910008AF
:1029000055910008D58C0008758A0008258A0008B2
:102910008D8A0008F589000869900008DD95000897
:102920002D9000085994000899940008B594000867
:102930002D95000849950008C9960008E5960008FD
:10294000619A00082D9A000815940008E193000888
:10295000A1900008BD900008919A0008AD9A000867
:10296000958F0008D1910008299B000870B50024BC
:10297000304890F84C0000F0F000802805D12D4838
:1029800090F84C0000F00F0030B100202A49088078
:102990002A482B49086070BD0020264981F8B00103
:1029A0000021244880F8B11123480088401C2249A6
:1029B000088008460088B0F5967F00DAEBE7002033
:1029C0001D4908801B4890F8F801C0F3401058BB1F
:1029D000184890F8F801C0F3001028BB1548D0F84B
:1029E000B81118480AF0ACFA0546124801682846A2
:1029F00009F014FF0446144920460AF0ADF807D246
:102A0000124920460AF0A8F902D20A48046002E0FE
:102A10000020084908600748D0F8FC0120F00100B8
:102A2000401C0449C1F8FC0100210248C16400BFF8
:102A3000B1E7000088090020A4000020E15D000843
:102A4000940000200000B44200002041000020C19A
:102A50001CB5002400BF00F027F821E069460020E3
:102A600002F098FB48B90F480168009809F0D6FEBB
:102A70000C49C1F8B80100240DE0142C02DA601CE6
:102A800084B208E00748D0F8F80120F010001030B8
:102A90000449C1F8F80101AA0021022004F024FE33
:102AA000DCE700008809002008B507F0AFF903F063
:102AB00045FB6946182007F053F99DF800003828B7
:102AC00001D1002008BD4FF0FF30FBE708B500BF83
:102AD0000BE000F033FC02F0B3FB0449C1F8F40151
:102AE0006A4600211E2004F0FFFDF2E7880900205D
:102AF00010B5204890F84C00282803D01E481F49E4
:102B0000086010BD00201B4981F8B001486B4FF0F0
:102B10007E5109F083FE04461648816D20460AF076
:102B20001BF908D21349486B4FF07E5109F076FE2D
:102B30001049486518E00F49886B4FF07E510AF044
:102B4000FFF904460B48816D20460AF005F808D2CB
:102B50000849886B4FF07E510AF0F2F90549486543
:102B600002E00448816D41650121024880F8B111FD
:102B700000BFC6E788090020252C00089800002027
:102B800010B50C4890F84C00252803D00A480B4992
:102B9000086010BD0020074981F8B001888F09F056
:102BA000C7FF044948650121024880F8B11100BF00
:102BB000EFE7000088090020252C0008980000207D
:102BC00010B5144890F84C0000F0F000202818D1FF
:102BD0001048D0F8F801C0F3807068B90D48D0F8FB
:102BE000F801C0F3006038B907F09EFF00F082FAE8
:102BF0000948006880470BE00021064880F8B111C1
:102C000006E00648064908600021024880F8B11134
:102C100010BD00008809002098000020E15D000838
:102C20009400002000211F4880F8B11190F84C005A
:102C3000242803D11C481D49086032E0194890F847
:102C40004C00252803D11A481849086029E0154886
:102C500090F84C00282806D1164814490860002135
:102C60001048C1651DE00F4890F84C00212803D1A1
:102C700011480E49086014E00A4890F84C002228D8
:102C800003D10E48094908600BE0064890F84C0053
:102C9000202803D10A480549086002E009480A498A
:102CA0000860704788090020F12F00089800002074
:102CB000812B0008F12A0008CD2C0008E52E000821
:102CC000592F0008E15D00089400002010B57C48F1
:102CD00090F84C00212808D000207A4908707A49E1
:102CE00008807A487A49086010BD0020744981F84C
:102CF000B0017448007805287ED2DFE800F0032D8B
:102D00006581B80073496E484165012180F8B111B1
:102D1000014608696F4909F081FD04466848D0F80A
:102D2000B81120460AF018F815D8654801696948B5
:102D30000AF006F904466248D0F8B811204609F0B6
:102D40000BFF08D80120644908705E490870002113
:102D50005B4880F8B111B0E00121594880F8B11109
:102D60005D49097801EB8101490001F13C0009F05E
:102D7000C7FE53494865486D584909F0EDFF0AD828
:102D800001205549087003204E49087000214C4825
:102D900080F8B11117E04A49486D4FF07E510AF0B2
:102DA000CFF804464648D0F8B811204609F0D4FEC2
:102DB00009D20220434908700020434908800021BD
:102DC0003F4880F8B11178E000213D4880F8B1110A
:102DD0003D4801880088401C3B4A108042F6E06074
:102DE00081420CDB00201146088001203549087023
:102DF00039480078401C00E053E0374908705CE037
:102E000001212F4880F8B1113349097801EB810184
:102E10004900C1F1780009F073FE29494865486D01
:102E20002F4909F099FE09D801202B49087025493E
:102E300008700021224880F8B11117E02049486D40
:102E40004FF07E5109F0EAFC04461D48D0F8B81155
:102E5000204609F081FF09D804201A490870002093
:102E6000194908800021164880F8B11125E0002199
:102E7000134880F8B111144801880088401C124A98
:102E8000108042F6E06081420ADB00201146088093
:102E900003200C49087010480078401C0E49087047
:102EA0000BE0002007490870074908800A490870AC
:102EB0000021034880F8B11100BF00BF00BF13E735
:102EC00088090020A6000020A8000020252C00086A
:102ED0009800002000007042AA0000200000F44288
:102EE0000000684210B5174890F84C00222803D023
:102EF00015481649086010BD0020124981F8B0013C
:102F0000D1F8B80112490AF01BF80446114909F03A
:102F100023FF08D20B49886B4FF080410AF010F86C
:102F20000849486507E00749486B4FF0804109F0C0
:102F300075FC044948650121024880F8B11100BFC1
:102F4000D9E7000088090020252C000898000020FF
:102F50000000B442CDCCCC3D10B5224890F84C00D6
:102F6000202803D020482149086010BD01201D49B8
:102F700081F8B001886B4FF07E5109F0E1FF044603
:102F80001848D0F8F411204609F0E6FD08D8154994
:102F9000886B4FF07E5109F0D3FF124948651AE063
:102FA0001049486B4FF07E5109F038FC04460D483B
:102FB000D0F8F411204609F0CFFE08D80949486B33
:102FC0004FF07E5109F02AFC0649486503E00548A8
:102FD000D0F8F41141650121024880F8B11100BF19
:102FE000C3E7000088090020252C00089800002075
:102FF00010B50C4890F84C00242803D00A480B491F
:10300000086010BD0020074981F8B001888F09F0E1
:103010008FFD044948650121024880F8B11100BFC5
:10302000EFE7000088090020252C00089800002008
:1030300010B501214FF0C05005F058FD012005F0FA
:10304000C7F9002000F042F8002000F02BF800F053
:103050001FF8002005F0BCF910BD10B5042000F0E9
:1030600027F84AF6AA21884201D1002010BD4FF06E
:10307000FF30FBE710B5012005F0AAF94AF6AA21B6
:10308000042000F029F8002005F0A2F910BD00008E
:103090000348008840F001000149088070470000A3
:1030A000346C0040014908607047000088860D427A
:1030B00008B501460020009003480090009808449D
:1030C00000900098008808BD006C0040014908602D
:1030D0007047000000860D4208B500220092044AA5
:1030E0000092009A02440092009A116008BD00000C
:1030F000006C00400E4890F84C00242817D00C4873
:1031000090F84C00252809D10948D0F8F801C0F3FF
:10311000007060B920210648C16408E00448D0F876
:10312000F801C0F3007010B125210148C164704757
:103130008809002001460846044A1268904203D9D3
:10314000024A1268801A00E00020704774000020D4
:1031500070B5002500BFFFF75DF8054600BF0648C3
:10316000046800BF2846FFF759F800BF2046FFF764
:10317000E1FF0646304670BD7800002070B500259E
:10318000FFF7E6FF044600BFFFF744F8054600BF1F
:1031900000200449086000BF2846FFF73FF800BF41
:1031A000204670BD7800002000B509480088401C0A
:1031B000074908800748008818B900F039F806491F
:1031C000086004480088401C0249088000BD0000D7
:1031D000680000206A0000206C00002000B50F4845
:1031E0000088401E0D4A108010460088A0B900F0EB
:1031F0001FF80B4A1060104600680A4A1268811ACC
:1032000009480068884201D2074801600748006801
:10321000884201D20548016000BD00006A0000201C
:10322000700000206C000020780000207C0000204E
:103230000148406870470000001000E030B50246C9
:103240000B46002100244FF6FF7000BF12E0555CD2
:10325000684000240AE000F0010525B140104AF260
:103260000105684000E04010651CECB2082CF2DB60
:103270004D1CA9B29942EADB30BD00002DE9F74FA1
:1032800082B089461446484609F09CFA0746224A0D
:10329000224B09F013F8054608F0D2FC814620497C
:1032A000204609F08DFC824609F08CFA07461A4A3E
:1032B0001A4B09F003F8054608F0C2FC0446194809
:1032C0000168029809F03CFE824609F07BFA074645
:1032D000154A164B08F0F2FF054608F0B1FC0290C3
:1032E0002146484607F0A0FF009009F06BFA05461A
:1032F0000F4A104B08F0E2FF074600220E4B08F081
:10330000D1FC824608F09CFC0190DDE9011002F03E
:10331000BDFD05B0BDE8F08FD5CC5A0A48FB0F3F84
:10332000000080BFC0000020EC51B81E85EB713F4B
:10333000D3DEE00B93A94C400080564000B5C3B0EB
:10334000002042900021419140913F913E913D915A
:103350003C913B913A913991389137913691359121
:10336000349133913291319130912F912E912D9151
:103370002C912B912A912991289127912691259181
:10338000249123912291219120911F911E911D91B1
:103390001C911B911A91FE48B0F864103E91B0F850
:1033A00066103D91B0F868103C91DDE93C213E98F3
:1033B00002F0CAF8409040F26C71419129E04FF45C
:1033C000C871419890FBF1F201FB120010B94FF463
:1033D000B77118E04198C217199000EB92708210F3
:1033E0001998A0EB820060B96421419890FBF1F23A
:1033F00001FB120010B14FF4B77104E040F26D11FF
:1034000001E040F26D113F9801443F914198401C0A
:1034100041903E9941988842D1DBDDE93F1001445B
:103420003F91DB484168389181683791C168369196
:10343000B0F86A103B91B0F86C103A91B0F86E1089
:103440003991399809F05CFB35903A9808F0CFFE35
:10345000CDE91601359809F0B5F90022CD4BCDE93B
:10346000120108F0D3FCCDE91401DDE9162308F0C0
:1034700019FCCDE9180108F0E3FB35903B9808F002
:10348000B6FECDE91401359809F09CF90022C14B34
:10349000CDE9100108F0BAFCCDE91201DDE91423F1
:1034A00008F000FC0022BC4BCDE9160108F0AEFC90
:1034B000CDE9180108F0C4FB35903F98401C09F095
:1034C0001FFB3490B549369809F01CFA0F9009F0AB
:1034D00079F9CDE91201359809F074F94FF080427D
:1034E000AF4BCDE90E0108F0DDFBCDE91001DDE9C0
:1034F000122309F07DF8CDE91601349809F062F93C
:10350000CDE91401DDE9162308F0CCFBCDE9180163
:1035100008F096FB3490A349349809F011FDA249B4
:10352000199009F0EFF93390339809F04BF99F4A5D
:103530009F4BCDE90E0108F0C1FE9E4A9E4BCDE99E
:10354000100108F0AFFBCDE91401339809F03AF906
:10355000CDE91201DDE9142308F0B0FE974A984B3B
:10356000CDE9160108F09EFBCDE9180108F068FBD3
:1035700032904FF4B471329802F07EFF329033985B
:1035800009F020F98F4A904BCDE90E0108F096FE24
:103590008E4A894B373BCDE9100109F01DF8CDE982
:1035A0001401339809F00EF9CDE91201DDE9142375
:1035B00008F084FE864A874BCDE9160108F072FBBD
:1035C000CDE9180108F03CFB3190339809F0FAF886
:1035D000814A824BCDE90E0108F070FE804A814B92
:1035E000CDE9100108F05EFBCDE91401339809F034
:1035F000E9F8CDE91201DDE9142308F05FFE7A4A0B
:103600007A4BCDE9160108F0E7FFCDE9180108F083
:1036100017FB30907648319909F0D2FA75490A9033
:1036200009F070F90B9009F0CDF8734A734BCDE9AE
:103630000C0108F043FECDE90E0108F001FB1090EB
:1036400008F06AF9119009F0BDF86D4A6D4BCDE9AB
:10365000120108F033FECDE91601339809F0B2F8F3
:10366000694A6A4BCDE9080108F028FE684A694BAF
:10367000CDE90A0108F0B0FFCDE90E014FF080401E
:10368000319909F09DFA5B49049009F03BF90590E6
:1036900009F098F8584A594BCDE9060108F00EFE9A
:1036A000CDE9080108F0CCFA0A9008F035F90B9042
:1036B00009F088F8CDE90C01DDE90E2308F0FEFDE4
:1036C000CDE91201339809F07DF8534A534BCDE907
:1036D000020108F0F3FD524A524BCDE9040108F013
:1036E000E1FACDE90801339809F06CF8CDE906015B
:1036F000DDE9082308F0E2FD4B4A4C4BCDE90A0115
:1037000008F06AFFCDE90E013A49319809F0FAF85C
:10371000059009F057F8384A384BCDE9060108F012
:10372000CDFDCDE9080108F08BFA0A9008F0F4F815
:103730000B9009F047F8CDE90C01DDE90E2308F004
:10374000BDFDCDE91001DDE9122308F0ABFACDE9AA
:103750001401DDE9162308F0A5FACDE9180108F0F7
:103760006FFA2F902F99329809F058F82E903398CD
:1037700009F028F82E4A2F4BCDE9140108F09EFDE0
:103780002D4A2E4BCDE9160108F026FF58E0000027
:103790008809002000004E40000038400000C04171
:1037A000D56C424164A1154A00AD0E47C0AB8A15E5
:1037B000DADE333F2F8672A21894E14046CEC29ED5
:1037C000768771400CDB60F25025243F2AC6F99BB6
:1037D000C91F0C3C7758764000D864FC6001813EDC
:1037E00003E35F521C0A063F80035D72111C913F88
:1037F00000004040000034434AD8124DFB210940EC
:103800002C616D8C9DF0323FE31A9FC9FE791A3FFF
:10381000958098840B79943FB75F3E59315CED3EBB
:10382000AEF36F97FDBA733FF6B2EDB435A2FE3F2B
:10383000068195438B389E40C3F5285C8F425F40DC
:10384000CDE9180108F0FCF94290FE49429809F0D0
:1038500059F80B9008F0B6FFFB4AFC4BCDE90C0180
:1038600008F02CFDCDE90E0108F0EAF9109008F0FF
:1038700053F8119008F0A6FFF54AF64BCDE9120176
:1038800008F01CFDCDE916012E9808F09BFFF24AC6
:10389000F24BCDE9120108F0ABFECDE91401DDE9F0
:1038A000162308F0A5FECDE9180108F0C9F92D90FE
:1038B000339808F087FFEA4AEA4BCDE9000108F0A7
:1038C000FDFCE94AE94BCDE9020108F085FECDE9AE
:1038D0000601339808F076FFCDE90401DDE90623FF
:1038E00008F0ECFCE24AE34BCDE9080108F0DAF914
:1038F000CDE90C01339808F065FFCDE90A01DDE957
:103900000C2308F0DBFCDC4ADC4BCDE90E0108F0AF
:1039100063FE0022DA4BCDE9100108F077FA0022AD
:10392000D84BCDE9120108F0BDF90022D44BCDE906
:10393000140108F06BFA0022D34BCDE9160108F010
:10394000B1F9CDE9180108F07BF92C90BD494298F6
:1039500008F0D8FF0B9008F035FFBB4ABB4BCDE910
:103960000C0108F0ABFCCDE90E0108F069F91090EC
:1039700007F088FD119008F025FFC44AC44BCDE93B
:10398000120108F09BFCCDE916012C9808F01AFFF3
:10399000CDE91401DDE9162308F084F9CDE9180119
:1039A00008F04EF92B90A7492D9808F0ABFF09902D
:1039B00008F008FFA44AA54BCDE90A0108F07EFCF7
:1039C000CDE90C0108F03CF90F9007F0A5FF9D49E7
:1039D00011902B9808F096FF099008F0F3FE9A4A90
:1039E0009A4BCDE90A0108F069FCCDE90C0108F019
:1039F00027F90F9007F090FF1090119909F0E0F867
:103A0000129007F07FFB139008F0DCFE8E4A8F4B7C
:103A1000CDE9140108F0FAF900229E4BCDE9160118
:103A200008F04CFCCDE9180108F00AF92A904FF093
:103A300080412B9808F066FF8249109008F062FFE1
:103A4000119008F0BFFE804A804BCDE9120108F0CA
:103A500035FCCDE9140108F0F3F8179008F036F8BA
:103A60004FF0804119902B9808F04CFF7549109049
:103A700008F048FF119008F0A5FE734A734BCDE99A
:103A8000120108F01BFCCDE9140108F0D9F81790D9
:103A900008F01CF81890199909F092F829906949D2
:103AA000319808F02FFF079008F08CFE664A674BAC
:103AB000CDE9080108F002FC00224FF08043CDE977
:103AC0000A0108F0FBFBCDE90C0108F0B9F80E90F3
:103AD00007F022FF0F9008F075FECDE91201309833
:103AE00008F070FECDE90E01309808F06BFE002260
:103AF000694BCDE90A0108F0E1FBCDE90C01DDE9F4
:103B00000E2308F0DBFBCDE91001DDE9122308F0FC
:103B1000D5FBCDE916014B49329808F0F3FE03902E
:103B200008F050FE484A494BCDE9040108F0C6FBB5
:103B300000225A4BCDE9060108F0C0FBCDE908018F
:103B400008F07EF80A9007F0E7FE0B9008F03AFEC6
:103B5000CDE90E01299808F035FECDE90A01299832
:103B600008F030FE00224E4BCDE9060108F0A6FB1E
:103B7000CDE90801DDE90A2308F0A0FBCDE90C013D
:103B8000DDE90E2308F09AFBCDE912012D493298A8
:103B900008F0B8FE039008F015FE2B4A2B4BCDE938
:103BA000040108F08BFB00224FF08043CDE90601B1
:103BB00008F084FBCDE9080108F042F80A9007F00C
:103BC00061FC20490C90319808F09CFE039008F0AD
:103BD000F9FD1D4A1D4BCDE9040108F06FFBCDE94D
:103BE000060108F02DF8089007F096FE0A904FF0B5
:103BF0008140309908F0E4FF0890299908F0E0FF2F
:103C000009900A9908F0DCFF0B900C9908F0D8FF96
:103C10000C490E90319808F075FE039008F0D2FD23
:103C2000094A0A4BCDE9040108F048FBCDE9060139
:103C300008F006F8089007F06FFE0A904FF08040F9
:103C400030992FE0000034434AD8124DFB2109403F
:103C5000F94ECC7A3194733F1FBAA0BE654E773FC0
:103C6000D61A4AED45B45D3FBEA4315A4755433F8D
:103C7000B81E85EB51684740A69BC420B072354002
:103C800000004E4000003A4000003740F168E388F1
:103C9000B5F8643F008066400000F43F000010402B
:103CA0000000E03F08F08CFF09900A9908F088FFB7
:103CB000FE490C90329808F025FE019008F082FD34
:103CC000FB4AFC4BCDE9020108F0F8FA00224FF064
:103CD0008043CDE9040108F0F1FACDE9060107F0CF
:103CE000AFFF099007F018FE0A90299908F068FFC5
:103CF0000B900C9909F024F90D900E9908F08EFDA7
:103D00000F9008F05FFDCDE91001DDE9122308F006
:103D10006FFCCDE91401DDE9162308F069FCCDE95B
:103D2000180107F08DFF4290429808F04BFDE04AE1
:103D3000E04BCDE9120108F069F80022DE4BCDE935
:103D4000140108F0BBFA0022DC4BCDE9160108F0A3
:103D5000B5FACDE9180107F073FF2890D3492A98E6
:103D600008F0D0FD079008F02DFDD14AD14BCDE9E8
:103D7000080108F0A3FACDE90A0107F061FF0D90F0
:103D800007F0A4FEC9490F90379808F0BBFD0790D3
:103D900008F018FDC64AC74BCDE9080108F08EFAB5
:103DA000CDE90A0107F04CFF0D9007F08FFE0E9051
:103DB0000F9908F005FFBD4911902A9808F0A2FD5F
:103DC000059008F0FFFCBA4ABA4BCDE9060108F0AD
:103DD00075FACDE9080107F033FF0B9007F052FBAD
:103DE000B2490D90379808F08DFD059008F0EAFC77
:103DF000AF4AB04BCDE9060108F060FACDE9080101
:103E000007F01EFF0B9007F03DFB0C900D9908F09A
:103E1000D7FE0F90AA4807F035FB0E900F9908F0D7
:103E200071FD1090119909F08BF8129007F0DCF8F1
:103E3000139008F0C7FC9E4A9E4BCDE9140107F091
:103E4000E5FF00229C4BCDE9160108F037FACDE9D9
:103E5000180107F0F5FE27909A49369808F0B0FE51
:103E600018904FF08140389908F0AAFE96491590B5
:103E700008F0D4FF1690289909F062F81790189965
:103E800008F0CCFC9149199008F03CFD26904FF0C9
:103E90008141279808F094FE8C49189008F032FD73
:103EA0001990269908F0BAFF25904FF08141279884
:103EB00008F086FE8549189008F024FD199026998F
:103EC00008F0ACFC24907F48369908F079FE1990F0
:103ED0004FF08140389908F073FE7C49179035986F
:103EE00008F06EFE1590289908F098FC1690179926
:103EF00008F094FC1890199909F022F823904FF4D7
:103F0000B461239802F0B8FA23900021239808F0B6
:103F100023FE09D24FF08141239808F0F3FC634956
:103F2000199009F00DF808E04FF08141239808F04E
:103F3000E9FC5E49199009F003F822905B49229848
:103F400008F0E0FC079008F03DFC594A594BCDE9D8
:103F5000080108F0B3F9CDE90A0107F071FE0D90F0
:103F600007F090FA51490F902A9808F0CBFC059081
:103F700008F028FC4E4A4F4BCDE9060108F09EF9A7
:103F8000CDE9080107F05CFE0B9007F07BFA47498A
:103F90000D90379808F0B6FC059008F013FC444AE1
:103FA000444BCDE9060108F089F9CDE9080107F095
:103FB00047FE0B9007F066FA0C900D9908F000FE92
:103FC0000E900F9908F0FCFD384911902A9808F0DE
:103FD00099FC079008F0F6FB354A364BCDE908010D
:103FE00008F06CF9CDE90A0107F02AFE0D9007F000
:103FF00093FC2E490F90379808F084FC079008F046
:10400000E1FB2B4A2B4BCDE9080108F057F9CDE92C
:104010000A0107F015FE0D9007F07EFC0E900F9937
:1040200008F0CEFD1090119908F0F8FB129006F000
:10403000DBFF139008F0C6FB1D4A1E4BCDE91401AF
:1040400007F0E4FE00221C4BCDE9160108F036F91A
:10405000CDE9180107F0F4FD21901D48219908F0E1
:104060006FFF20901149209808F04CFC139008F045
:10407000A9FB0F4A0F4BCDE9140108F01FF9CDE958
:10408000160107F0DDFD199007F020FD1F901F9924
:10409000084608F095FD19901F9908F091FD1E90B3
:1040A000DDE91E0108F08CFD199013E00000344397
:1040B0004AD8124DFB2109400080664000001040A4
:1040C00041ECCA3F00007042000034440000B44498
:1040D0000000B4421F9908F073FD1D90FE4920981E
:1040E00008F03AFE02D200200146B8E0FB492098D1
:1040F00008F032FE45D21D9808F064FB02460B46DC
:10410000CDE91001F648F74907F080FECDE914012A
:104110001E9808F057FB02460B46CDE90C01F24809
:10412000F24907F073FECDE91001F149209808F03B
:10413000E9FB059008F046FBEE4AEF4BCDE906019E
:1041400008F0BCF8CDE9080107F07AFD0A9007F005
:10415000BDFC0B9008F036FB02460B46CDE90C0186
:10416000E648E74907F052FECDE90E01DDE91023EC
:1041700008F03EFACDE91201DDE9142307F092FDC3
:104180006DE0209808F01EFB4FF06632DD4BCDE964
:10419000140108F091F943D2209808F013FBDA4A91
:1041A000DA4BCDE9000108F089F8CF4A5242D84BEA
:1041B000CDE9020107F076FDCDE90601209808F06F
:1041C00001FBCDE90401DDE9062308F077F8D14AC7
:1041D000D14BCDE9080107F065FDCDE90C01209830
:1041E00008F0F0FACDE90A01DDE90C2308F066F8E1
:1041F000C84ACA4BCDE90E0107F054FDCDE91201C2
:10420000209808F0DFFACDE91001DDE9122308F06B
:1042100055F80022C24BCDE9140107F043FD1EE022
:10422000B349209808F06EFB0D9008F0CBFAB14A24
:10423000B14BCDE90E0108F041F8CDE9100107F0CE
:10424000FFFC129007F042FC139008F0BBFA024604
:104250000B46CDE91401B348B34907F0D7FD00225E
:10426000B24BCDE9160107F0D1FDCDE9180107F0F9
:10427000E7FC1C901C99209808F0D0FA1B900021B4
:10428000229808F069FD7CD29949219808F03AFB00
:10429000039008F097FA974A974BCDE9040108F08C
:1042A0000DF8CDE9060107F0CBFC099007F034FBCF
:1042B0008F490B90379808F025FB039008F082FA9D
:1042C0008C4A8D4BCDE9040107F0F8FFCDE90601DA
:1042D00007F0B6FC099007F0D5F80A900B9908F0A2
:1042E0006FFC83490D902A9808F00CFB039008F0AE
:1042F00069FA804A804BCDE9040107F0DFFFCDE980
:10430000060107F09DFC099007F006FB78490B9029
:10431000219808F0F7FA019008F054FA754A764BA4
:10432000CDE9020107F0CAFFCDE9040107F088FCDE
:10433000079007F0A7F86E490990379808F0E2FA5D
:10434000019008F03FFA6B4A6B4BCDE9020107F090
:10435000B5FFCDE9040107F073FC079007F0DCFA24
:104360000890099908F02CFC0A900B9908F0E8FDD8
:104370000C900D9908F0C6FA0E9006F035FE0F90DD
:1043800000E01DE008F01EFA5A4A5B4BCDE910012F
:1043900007F03CFD0022664BCDE9120107F08EFFCD
:1043A0000022634BCDE9140107F07CFCCDE9160136
:1043B00007F046FC4FF4B471199002F05DF8C7E0C5
:1043C0004B49219808F09EFA039008F0FBF9494AFE
:1043D000494BCDE9040107F071FFCDE9060107F073
:1043E0002FFC099007F098FA41490B90379808F094
:1043F00089FA039008F0E6F93E4A3F4BCDE9040103
:1044000007F05CFFCDE9060107F01AFC099007F000
:1044100039F80A900B9908F0D3FB35490D902A988A
:1044200008F070FA039008F0CDF9324A324BCDE92A
:10443000040107F043FFCDE9060107F001FC0990F4
:1044400007F06AFA2A490B90219808F05BFA01906C
:1044500008F0B8F9274A284BCDE9020107F02EFFF2
:10446000CDE9040107F0ECFB079007F00BF82049B9
:104470000990379808F046FA019008F0A3F91D4A10
:104480001D4BCDE9020107F019FFCDE9040107F04A
:10449000D7FB079007F040FA0890099908F090FBC5
:1044A0000A900B9908F04CFD0C900D9908F02AFA2F
:1044B0000E9006F099FD0F9008F084F90D4A0E4B0E
:1044C000CDE9100107F0A2FC0022194BCDE9120141
:1044D00007F0F4FE00222DE00000AA420000A040F8
:1044E0003677F4BF5C8B163FEC51B81E85EBB13FBD
:1044F000000034434AD8124DFB210940CDCCCCCC2E
:10450000CC0C4D406666E2BF8D976E1283C0E63FCD
:104510007A9429C09A99999999D95940993180C02A
:10452000001C9B401283C0CAA1C534C00020AC400F
:1045300000806640214BCDE9140108F04DF8CDE92B
:10454000160107F07DFB4FF4B471199001F094FF50
:104550001A901B49259808F033FB1A49C1F8E40169
:104560001749249808F02CFB1649C1F8E8011A985D
:10457000C1F8F0011B9808F025F90022124BCDE993
:10458000180107F099FF04D810490E48C0F8EC1143
:1045900012E01B9808F016F900220D4BCDE9180126
:1045A00007F050FE04D20B490648C0F8EC1103E0B6
:1045B00004491B98C1F8EC0143B000BD00E0804005
:1045C0000000C04188090020004056400000B2426F
:1045D000004056C00000B2C270B52A4890F84C00A6
:1045E00000F0F000602805D1264890F84C0000F05B
:1045F0000F0018B124482549086070BD00202149EA
:1046000081F8B001486B4FF07E5108F007F904467D
:104610001C49B1F8420008F08BFA0546214608F023
:104620009BFA08D21749486B4FF07E5108F0F6F814
:104630001449486520E01349886B4FF07E5108F01B
:104640007FFC04460F49B1F8420008F071FA0546B4
:10465000214608F081FB08D20A49886B4FF07E5151
:1046600008F06EFC0749486506E00649B1F84200CB
:1046700008F05EFA034948650121024880F8B1114B
:1046800000BFBAE788090020E15D0008940000201F
:1046900001201749888200200860A1F844005A20B0
:1046A00088872D20A1F84200124848631248886389
:1046B0005A20C887A1F84000400708610F48886069
:1046C0000F4848604FF08240C8600E4848620E486C
:1046D0000862002088623C20C885122088854FF43B
:1046E000967048860E20088608488861704700004A
:1046F0008809002000003442000007430000F04118
:104700000000F242CDCC8C409A99F93F0000404025
:1047100010B5022000F0A8F8002864D032480068E4
:1047200020F002003049086000212F480838FDF7CA
:10473000E6FF00212C480838FDF742FF022000F078
:1047400079F800202949087031E000212848274ADB
:10475000127840F822100020264908701EE02549F2
:10476000097801EB8101214A12781144224A32F87A
:10477000110008F0DDF904461D481C4A127850F873
:104780002210204608F04AF81949184A127841F8D0
:10479000220018480078401C164908701548007817
:1047A0000A28DCDB11480078401C104908700F48CB
:1047B00000780528C9DB0E480068104908600C48DD
:1047C00040680F4908600A4880680E490860084838
:1047D000C0680D490860064800690C49086000215E
:1047E0000B4800F035F810BD082401400C010020F2
:1047F000CC4900200D010020684900201001002054
:104800001401002018010020200100201C010020BC
:104810000800024010B504460021054800F018F8D1
:104820000348001D04600121001F00F011F810BDB5
:104830005804024000F0805111B10349086001E0C2
:104840000249486070470000040402400000024032
:1048500021B1026842F00102026004E002684FF6F2
:10486000FE731A400260704701460020002201F0EA
:10487000805313B1054B1A6801E0054B1A6802EA30
:1048800001030BB1012000E000207047000402404A
:10489000000002401AB103680B43036002E00368A2
:1048A0008B430360704710B50022026847F6F0732F
:1048B0009A430C6A8B6823430C6923434C69234356
:1048C0008C692343CC6923434C6A23438C6A23437A
:1048D0001A430260CB6843600B6883604B68C36017
:1048E00010BD0C2105E00C2100BF0A1EA1F1010141
:1048F000FBD1021EA0F10100F5D1704706E048216E
:1049000000BF0A1EA1F1010359B2FADA021EA0F19A
:10491000010358B2F3DA704710B51449D1F8CC014D
:10492000134908F019F915D812480078401C1149AC
:10493000087008460078142817DB002008700B4820
:10494000D0F8F80120F0806000F180600749C1F8DC
:10495000F8010AE00020074908700448D0F8F8017F
:1049600020F080600149C1F8F80110BD88090020DD
:1049700000007041BC00002010B56C4890F8B301F5
:10498000012863D100206A4908806A480088401CD9
:104990006849088008460088052804DA6348D0F88A
:1049A000B8016549086063480088B0F5167F42DDAC
:1049B0000020604908805D48D0F8B8115E48006862
:1049C00008F0BEFA04464FF03F4108F0C5F809D29E
:1049D0005648D0F8F80120F00200801C5349C1F875
:1049E000F80107E05148D0F8F80120F002004F49E3
:1049F000C1F8F8014D48D0F8B8114F48006808F0E8
:104A00009FFA04464FF07E5108F0A6F90BD34748B1
:104A1000D0F8B8114848006808F092FA04464749AF
:104A200008F09AF808D24148D0F8F80120F02000A8
:104A30003E49C1F8F80177E03C48D0F8F80120F091
:104A4000200020303949C1F8F8016DE0374890F86E
:104A5000B301022863D10020364908803448008819
:104A6000401C3349088008460088052804DA2F488E
:104A7000D0F8B801304908602D480088B0F5167F9D
:104A800052DD00202A4908802848D0F8B8112A4869
:104A9000006808F055FA04464FF07C5108F05CF9C4
:104AA00009D22248D0F8F80120F00200801C1F49EA
:104AB000C1F8F80107E01D48D0F8F80120F0020025
:104AC0001A49C1F8F8011948D0F8B8111A48006815
:104AD00008F036FA04464FF07E5108F03DF90BD34A
:104AE0001248D0F8B8111448006808F029FA0446B2
:104AF000124908F031F808D20C48D0F8F80120F03B
:104B000020000A49C1F8F8010EE00848D0F8F80181
:104B100020F0200020300549C1F8F80104E0002011
:104B2000044908800249088010BD0000880900205F
:104B3000BA000020B8000020B4000020000080BFB0
:104B400070B54D4890F8B201002864DD4A4A916979
:104B5000D2F8BC0108F000F90CD94748D0F8BC11D4
:104B6000464808F02DF8044643488169204608F07D
:104B7000F3F81DD800204249087042480078401CD4
:104B8000404908700846007807F048FB04460022B8
:104B90003D4B07F091FC0BD200203A490870364893
:104BA000D0F8F80120F00100401C3349C1F8F801A9
:104BB00031498869354908F003F804462E48D0F891
:104BC000BC11204608F0C8F82AD82B49886930491A
:104BD00007F0F6FF04462848D0F8BC11204607F03D
:104BE000BBFF1DD826480078401C254908700846A0
:104BF0000078642814DD00200870224908701E48DF
:104C0000D0F8F80120F001001B49C1F8F80100209C
:104C10002049087004E000201949087019490870FB
:104C2000154890F8F80100F0010008B31A48008810
:104C3000401C1949088008460088B0F5966F1ADDB7
:104C40000020088013480078401C1249087008466C
:104C50000078082808DA0848D0F8F80120F00100A8
:104C60000549C1F8F80106E009200A49087002E088
:104C700000200949088070BD88090020000080BF1D
:104C8000AC000020AD00002000002C406666663FAE
:104C9000666666BFAE000020B000002010B53A493D
:104CA000886B4FF0804107F0B9FD04463648D0F8D4
:104CB000B811204607F050FF14D234480078401C49
:104CC000324908700846007832285CDD34200870CC
:104CD0002D48D0F8F80120F0080008302A49C1F822
:104CE000F80150E02849486B4FF0804108F028F95E
:104CF00004462548D0F8B811204608F02DF814D203
:104D000022480078401C2149087008460078322863
:104D100039DD342008701C48D0F8F80120F0040078
:104D2000001D1949C1F8F8012DE01749886B4FF0B3
:104D30007E5108F005F904461348D0F8B811204612
:104D400008F00AF81FD21049486B4FF07E5107F067
:104D500065FD04460C48D0F8B811204607F0FCFE6B
:104D600011D20020094908700748D0F8F80120F056
:104D700004000549C1F8F8010846D0F8F80120F010
:104D80000800C1F8F80110BD88090020B200002019
:104D900010B500F0E1F8352000F01EF800240AE01C
:104DA0000B4901EBC42000F01DF800BF00F05AF8D9
:104DB0000128FBD0641C502CF2D3064800F012F8F6
:104DC00000BF00F04FF80128FBD000F065F810BDDF
:104DD00000A0020800F007080149C8607047000001
:104DE0000020024030B5044604254FF4302000F086
:104DF000BFF80546042D17D10C48006940F00200A9
:104E00000A49086108464461006940F040000861B1
:104E10004FF4302000F0ACF805460448006941F634
:104E2000FD71084001490861284630BD002002405C
:104E300004200B49C96801F0010109B101200EE00D
:104E40000749C96801F0040109B1022007E00449DB
:104E5000C96801F0100109B1032000E00420704787
:104E60000020024004200B49C96801F0010109B18A
:104E700001200EE00749C96801F0040109B10220D0
:104E800007E00449C96801F0100109B1032000E0FE
:104E900004207047002002400348006940F0800071
:104EA00001490861704700000020024070B50446C7
:104EB0000D460426F00200F05BF80646042E11D1E0
:104EC0000948006940F00100074908612580F002A7
:104ED00000F04EF806460448006941F6FE710840AD
:104EE00001490861304670BD0020024078B5064691
:104EF0000C46042500200090E80200F039F8054631
:104F0000042D24D11348006940F0010011490861C3
:104F10003480E80200F02CF80546042D10D1B01CB6
:104F20000090200C00990880E80200F021F8054666
:104F30000848006941F6FE7108400649086106E02C
:104F40000448006941F6FE7108400249086128469C
:104F500078BD000000200240024803494860034831
:104F6000486070472301674500200240AB89EFCDC0
:104F700000B502460423FFF75BFF034603E0FFF79B
:104F800057FF0346521E012B01D1002AF7D102B967
:104F90000523184600BD000010B500F0B7FC4FF423
:104FA00048400849A1F8AC0100F02CFB0549B1F8D4
:104FB000AC1108430349A1F8AC010A210148A0F84B
:104FC000AE1110BD880900202DE9F04102460025F0
:104FD0000026002000230024002791F803C00CF0D5
:104FE0000F0591F803C00CF0100CBCF1000F03D0BA
:104FF00091F802C04CEA050591F800C0BCF1000F21
:1050000031D0146800202BE04FF0010C0CFA00F3B3
:10501000B1F800C00CEA03069E4220D183004FF095
:105020000F0C0CFA03F7BC4305FA03FC4CEA04042A
:1050300091F803C0BCF1280F06D14FF0010C0CFA17
:1050400000FCC2F814C00AE091F803C0BCF1480F9C
:1050500005D14FF0010C0CFA00FCC2F810C0401C46
:105060000828D1D31460B1F800C0BCF1FF0F34DDC3
:10507000546800202EE000F1080C4FF0010808FAF7
:105080000CF3B1F800C00CEA03069E4221D1830064
:105090004FF00F0C0CFA03F7BC4305FA03FC4CEA83
:1050A000040491F803C0BCF1280F05D100F1080CED
:1050B00008FA0CF8C2F8148091F803C0BCF1480F4C
:1050C00007D100F1080C4FF0010808FA0CF8C2F8FB
:1050D0001080401C0828CED35460BDE8F081000049
:1050E000F0B50A46002300240021002500F0004608
:1050F000B6F1004F02D11D4EF16901E01B4E7168FF
:10510000C0F3034583B200F44016B6F5401F08D142
:1051100021F07061154E766826F07066134F7E6040
:1051200012E000F48016B6F5801F06D1032606FAB9
:1051300005F4A14341F0706106E0460D360103FA23
:1051400006F6B14341F0706122B1460D360103FA13
:1051500006F6314300F00046B6F1004F02D1034E8F
:10516000F16101E0014E7160F0BD000000000140FE
:105170000246002093680B400BB1012000E00020A4
:1051800070474161704701617047000000487047F7
:10519000584200202DE9F84F83460F460024002591
:1051A00000266946232004F0DBFD9DF8000004433F
:1051B0006946222004F0D4FD200204B29DF80000CC
:1051C000044369462B2004F0CBFD9DF80000054305
:1051D00069462A2004F0C4FD280205B29DF80000AB
:1051E000054369462D2004F0BBFD9DF800000643F1
:1051F00069462C2004F0B4FD300206B29DF8000090
:1052000006436946182004F0ABFD9DF800003828DD
:1052100013D1304607F074FC8046284607F070FC36
:105220008146204607F06CFC824642464946FEF71E
:1052300025F838600020BDE8F88F4FF0FF30FAE71E
:105240002DE9F04F91B04FF0000AB549D1F8EC01CB
:1052500007F0B8FA0446B34AB34B07F02DF97DD8EE
:10526000AF49D1F8F001B14907F06AFEB0490E909C
:1052700007F048FB834607F0A5FA0646AD4AAE4B59
:1052800007F01CF8044606F0DBFC814606F0FAF84D
:105290008046A349D1F8EC01A54907F033FB8346CA
:1052A00007F090FA0646A34AA34B07F007F8044616
:1052B00006F0C6FC814606F009FC41460F9005F059
:1052C000B3FF8246504607F07DFA8046994A9A4BD2
:1052D00006F09CFD06460022984B06F0EFFF0446C0
:1052E00006F0AEFC82468E49D1F8F00107F06AFA6A
:1052F00004460022914B06F0A5FF7DD88848816ABC
:10530000504607F029FD79D28D49504607F024FD1B
:1053100074D28348816A504607F012FE84490E9089
:1053200007F0F0FA0F9007F04DFA0646814A824BDB
:1053300006F0C4FF044606F083FC834606F0ECFA50
:1053400081467748416A484607F03AFC80467448EF
:10535000016A404607F000FD05D800E0DBE050465A
:1053600011B0BDE8F08F6E48816A504607F0E8FD45
:105370006F49029007F0C6FA039007F023FA6D4ACE
:105380006D4BCDE9040106F099FFCDE9060106F069
:1053900057FC089006F0C0FA83466148416A5846B7
:1053A00007F00EFC09905E48016A099807F0AAFA16
:1053B0000A9005F0A7FE0B9007F004FA5D4A5E4BD9
:1053C000CDE90C0106F022FD064600225B4B06F0FB
:1053D00075FF04460D465549504607F01FFA06462C
:1053E00007F0F0F922462B46CDE90E0107F000F94F
:1053F000804606F025FCB3E705E0FFE74849888FC3
:1054000007F096FBACE74648816A494807F006FA80
:105410000446514607F0A0FC78D24A49504607F0AE
:105420009BFB73D23E4A516A106A07F06BFA5146F1
:105430000F903F4807F084FD0D903948816A0D9820
:1054400007F0ECF983463A4907F05CFA0E9007F052
:10545000B9F90646374A384B06F030FF044606F0E5
:10546000EFFB814606F058FA80460F9907F074FC6E
:1054700001D8504674E72A48816A504607F060FD1B
:105480002B49019007F03EFA834607F09BF9294A21
:10549000294BCDE9020106F011FFCDE9040106F028
:1054A000CFFB814606F038FA07901D48416A0798FD
:1054B00007F086FB08901A48016A089807F022FA5C
:1054C000804605F01FFE099007F07CF9194A1A4B37
:1054D000CDE90A0106F09AFC06460022174B06F0B9
:1054E000EDFE04460D461149504607F029FD0646DB
:1054F00007F068F922462B46CDE90C0106F0D2FBF5
:10550000CDE90E0106F09CFB2AE7FFE70449888FEE
:1055100007F00EFB24E70249888F07F009FB1FE71D
:10552000880900209A9999999999B93F0000B44245
:10553000000034434AD8124DFB21094000806640E8
:105540000000404000003143F0B5034614462046B9
:105550006FF00105DE1703EB9676B610A3EB860617
:105560002EB9642693FBF6F706FB173636B94FF4CF
:10557000C87693FBF6F706FB17360EB94FF0FF35EA
:10558000032906DA012901D1002200E01F2210447C
:105590001BE007290BDC0A4601EBD27677104E1E82
:1055A000C6EB061607EB46062E4430440DE005F127
:1055B000D606A1F10807C7EB071706EB4707CA1F76
:1055C00002EBD27607EB66063044F0BD70B50749B2
:1055D0000748006807F0F4FA0546064907F0F0FAB4
:1055E0000446054907F08EF970BD0000333353407F
:1055F00018010020BE9F4E41000020470048704720
:105600002044002010B500244FF400710A48FFF731
:10561000AFFD04436006040E4FF480710648FFF7A7
:10562000A7FD04436006040E80210348FFF7A0FD98
:105630000443204610BD00000018014070B5094920
:105640000948006807F0BCFA06464FF08B4107F0A6
:1056500059F90546054907F073FC0446044907F06B
:1056600051F970BD000004421001002000002543E4
:10567000000030410146C1EBC100024A02EB80004C
:10568000007E7047844400200146C1EBC100024AFD
:1056900002EB8000807E70478444002070B5094989
:1056A0000948006807F08CFA06464FF08B4107F076
:1056B00029F90546054907F043FC0446044907F06B
:1056C00021F970BD000004422001002000002543A4
:1056D0000000304170B509490948006807F070FAC8
:1056E00006464FF08B4107F00DF90546054907F0D6
:1056F00027FC0446044907F005F970BD0000044288
:105700001C0100200000254300003041F8B504468C
:1057100000266B46002292210F4800F005FA06464B
:10572000BEB99DF80150BDF80000000200B2009023
:10573000BDF8000000F47F4000B20090BDF9000009
:1057400028430090BDF90000C11700EB1161091258
:1057500021803046F8BD0000E04900202DE9FC47DB
:1057600005460E4617469846DDE90A9A00240020B1
:10577000009001904FF480716348FFF702FD4FF4F1
:1057800000716148FFF7FFFC80215F48FFF7F9FCDB
:105790000A20FFF7A6F800BF5BE04FF480715A487B
:1057A000FFF7F1FC0A20FFF79CF8182C18DA4021CB
:1057B0005548FFF7DDFC012841D12046E11704EBF5
:1057C0005171C910A4EBC102012191406A4602EB5C
:1057D000E402127811436A4602EBE40211702EE0F3
:1057E0001C2C10DA40214848FFF7C2FC012826D1C2
:1057F0009DF80300A4F1180101228A401043C0B2B1
:105800008DF803001BE0342C19DA40213E48FFF7E5
:10581000AFFC012813D1201DC11700EB5171C91035
:10582000A0EBC102012191406B46221D03EBE20275
:1058300012781143CAB2211D03EBE1010A704FF443
:1058400080713148FFF79DFC0A20FFF74AF8601C81
:10585000C4B2342CA1DB4FF400712B48FFF791FC4C
:105860009DF8000000F00F009DF80010C1F3021138
:1058700001EB810100EB410028809DF8010000F060
:105880000F009DF80110C1F3021101EB810100EB43
:10589000410030809DF8020000F00F009DF80210DA
:1058A000C1F3011101EB810100EB410038809DF84B
:1058B000040000F00F009DF80410C1F3011101EB8A
:1058C000810100EB4100A8F800009DF8050000F000
:1058D0000F009DF80510C1F3001101EB810100EBF1
:1058E0004100A9F800009DF8060000F00F009DF8A7
:1058F0000610090901EB810100EB410000F2DA70AA
:10590000AAF80000BDE8FC870010014008B501219D
:10591000402003F0FBF88020ADF8000004208DF853
:10592000030002208DF8020069460A48FFF74CFB8D
:105930004FF48070ADF8000069460648FFF744FB5D
:105940004FF40070ADF8000069460248FFF73CFBD9
:1059500008BD00000018014018B9054A12880A80E5
:1059600004E0012802D10A88014B1A807047000028
:10597000BE000020174818490860184848601848B9
:1059800088601848C8601848086118484861184875
:1059900088611848C86118480862486217488862D8
:1059A0001748C86217480863174848631748886350
:1059B0001748C86310480864164848640E4888644D
:1059C000C86415480865154848651548C8650A48FB
:1059D00008667047598C000820440020638C00083A
:1059E0007D8C000891940008859300089992000826
:1059F0001D9C0008A9960008595900086D990008D7
:105A00009598000875970008D59700083598000804
:105A100001990008DD8E0008F99C0008199D000816
:105A2000758D000870B504460025A18A2069FFF72E
:105A3000A8FB21896068FFF7A6FB0120FEF75EFF47
:105A4000A18A2069FFF79FFB0320FEF757FF2189FA
:105A50006068FFF78DFB012800D10125A18A20692C
:105A6000FFF78FFB0120FEF749FF284670BD70B598
:105A700004460D46A18A2069FFF783FB0120FEF74B
:105A80003DFF21896068FFF77EFB00202870072614
:105A900020E0A18A2069FFF774FB0120FEF72EFFAA
:105AA000A18A2069FFF76FFB0320FEF727FF2189FA
:105AB0006068FFF75DFB012803D12978B0400143FE
:105AC0002970A18A2069FFF75CFB0220FEF716FF10
:105AD000701E46B2002EDCDA70BD38B504460121D6
:105AE000206803F013F80121E06803F00FF8208923
:105AF000ADF8000014208DF8030003208DF802009B
:105B000069466068FFF760FA21896068FFF73BFB30
:105B1000A08AADF8000069462069FFF755FAA18A0E
:105B20002069FFF730FB38BD2DE9F84380460E466B
:105B300017461C4600250020208006F0FE06404641
:105B400000F0ADF83146404600F03EF84046FFF721
:105B500069FF00B16D1E3946404600F035F84046F9
:105B6000FFF760FF00B16D1E46F00106404600F0F1
:105B700096F83146404600F027F84046FFF752FFBE
:105B800000B16D1E69464046FFF771FF20889DF801
:105B9000001008432080404600F049F8694640461E
:105BA000FFF765FF20889DF800104FF47F4202EA5E
:105BB000012108432080404600F055F8404600F09F
:105BC00086F82846BDE8F8832DE9F04104460E46E4
:105BD0000127072527E0A18A2069FFF7D2FA0120D3
:105BE000FEF78CFE46FA05F000F0010020B1218995
:105BF0006068FFF7C8FA03E021896068FFF7C1FA1F
:105C00000120FEF77BFEA18A2069FFF7BCFA052080
:105C1000FEF774FEA18A2069FFF7B3FA0120FEF7B0
:105C20006DFE681E45B2002DD5DABDE8F08110B5D5
:105C30000446A18A2069FFF7A4FA21896068FFF76A
:105C4000A0FA0120FEF75AFEA18A2069FFF79BFA0D
:105C50000520FEF753FEA18A2069FFF792FA012082
:105C6000FEF74CFE10BD10B50446A18A2069FFF76F
:105C700088FA21896068FFF786FA0120FEF73EFE68
:105C8000A18A2069FFF77FFA0520FEF737FEA18A77
:105C90002069FFF776FA0120FEF730FE10BD10B53F
:105CA000044621896068FFF76EFA0220FEF726FE9F
:105CB000A18A2069FFF767FA0220FEF71FFE2189FB
:105CC0006068FFF75EFA0220FEF718FE10BD10B5FF
:105CD0000446A18A2069FFF754FA0120FEF70EFE60
:105CE00021896068FFF74DFA0120FEF707FEA18ABF
:105CF0002069FFF748FA0220FEF700FE218960685C
:105D0000FFF741FA0120FEF7F9FD10BD2DE9F04142
:105D100080460D4616461F46002405F0FE05404607
:105D2000FFF7BDFF29464046FFF74EFF4046FFF70D
:105D300079FE00B1641E31464046FFF745FF4046FC
:105D4000FFF770FE00B1641E39464046FFF73CFF86
:105D50004046FFF767FE00B1641E4046FFF7B7FFFD
:105D60002046BDE8F08110B5012002F067FF00BFBA
:105D7000612002F045FF0028FAD045F2555000F0AE
:105D800029F8042000F01AF84FF47A6000F01CF8AB
:105D900000F00CF800F002F810BD00004CF6CC400A
:105DA0000149086070470000003000404AF6AA2010
:105DB0000149086070470000003000400149486018
:105DC00070470000003000400149886070470000C3
:105DD000003000400149086070470000003000407A
:105DE0000021234880F8B111C06CFF2802D120485F
:105DF000C1643CE01E4890F84C0000F0F000202800
:105E000003D11C481C49086031E0194890F84C0047
:105E100000F0F000102803D118481749086026E068
:105E2000134890F84C0000F0F000402803D11448CB
:105E3000114908601BE00E4890F84C0000F0F0009B
:105E4000802803D10F480C49086010E0084890F8FA
:105E50004C0000F0F000602803D10B4806490860B0
:105E600005E000210248C164D0F8F4114165704793
:105E700088090020C12B000894000020F16300086D
:105E8000A56300086D290008D94500082DE9FE4FDB
:105E900005460C46DFF8D491DFF8D4A1DFF8D4B181
:105EA0004946284606F08CFE074673480168484676
:105EB00006F086FE804671480168404606F0AEFF57
:105EC0000646394606F0AAFC6D4908606A48006833
:105ED0006C4908606C4801686C4806F071FE0290DD
:105EE0006B480168484606F06BFE019069480168FE
:105EF000484606F065FE009067480168009806F085
:105F00008DFF8046019907F01BF80746029906F0BD
:105F100085FC0646514606F081FC604908605A48F7
:105F20000168484606F04CFE06465948016830466E
:105F300006F074FF5A49086053480168484606F065
:105F40003FFE064653480168304606F067FF554954
:105F5000086051464C48006806F060FC52490860F1
:105F600059464E48006806F059FC064631464B48F3
:105F7000006806F0C7FC4D4908605946474800686C
:105F800006F04CFC064631464648006806F0BAFC6E
:105F9000474908603A480168204606F0D1FF0746A5
:105FA00042480168384606F00BFE06463448016850
:105FB000304606F033FC314908603148016820461C
:105FC00006F0BEFF07463A480168384606F0F8FD7D
:105FD00006462C480168304606F020FC2649086039
:105FE000324801684FF07E5006F0AAFF06462B4863
:105FF0000168304606F0E4FD274908602B48016837
:106000004FF07E5006F09CFF06462548016830465A
:1060100006F0D6FD1E49086025480168254806F0AF
:10602000CFFD07461D480168384606F0C9FD064603
:106030001C480168304606F0F1FB164908601C4810
:1060400001681C4806F0BCFD074615480168384643
:1060500006F0B6FD064614480168304606F0DEFB41
:106060000949086005480068BDE8FE8F0AD7A33CCF
:106070000AD7233C00002041D0000020CC000020A3
:10608000C4000020C8000020F000002017B7D1395C
:10609000E8000020EC000020E4000020D4000020F4
:1060A000D8000020DC000020E0000020F4000020E8
:1060B000F8000020000080BF10B50948007838B90A
:1060C00001200749087002210648FFF75AF806E048
:1060D00000200349087002210248FFF754F810BD60
:1060E000020100200018014008B50121402002F003
:1060F0000DFD0220ADF8000010208DF803000220F5
:106100008DF8020069460448FEF75EFF022102484E
:10611000FFF739F808BD00000018014010B5022152
:106120000148FFF730F810BD0018014010B50221FA
:106130000148FFF726F810BD00180140F8B5694680
:106140000F2003F00DFE0EE069460F2003F008FE5D
:106150009DF80000692800D106E0002401E0601CE1
:10616000C4B2322CFBDBEFE700BF0021112004F0AA
:10617000E7FD7021102004F0E3FD0121122004F05E
:10618000DFFD11E0002000906946122003F0E8FDD9
:106190009DF8000000F0010000B906E0002401E0D5
:1061A000601CC4B2322CFBDBECE700BF00210120F5
:1061B00004F0C6FD20210B2004F0C2FD00210D20BB
:1061C00004F0BEFD00210E2004F0BAFD4321102092
:1061D00004F0B6FD4221112004F0B2FD742112201A
:1061E00004F0AEFD8C21132004F0AAFD0021142040
:1061F00004F0A6FD0021152004F0A2FD00211620C8
:1062000004F09EFDC421172004F09AFD10215820AF
:1062100004F096FD3821182004F092FD3821192051
:1062200004F08EFD002400203C49086037E0002087
:10623000009069461E2003F093FD9DF8000000F0D9
:10624000020002281DD100256946232003F088FDA5
:106250009DF8000005436946222003F081FD2802D5
:1062600005B29DF800000543284606F049FC0646A5
:106270002A480168304606F0D1FA28490860601CB7
:10628000C4B2052C0BDD204606F052FC0646314612
:106290002248006806F036FB2049086000E0C6E7A7
:1062A00000BF002437E00020009069461E2003F064
:1062B00057FD9DF8000000F0020002281DD10025C6
:1062C0006946232003F04CFD9DF800000543694614
:1062D000222003F045FD280205B29DF80000054389
:1062E000284606F00DFC06460C480168304606F0CC
:1062F00095FA0A490860601CC4B21E2C0BDD601CB4
:1063000006F0FEFB064631460448006806F0FAFA3D
:106310000249086000E0C6E700BFF8BDC0000020E9
:1063200008B5002400BFFFF7DFFE24E0601CC4B204
:106330001148006D28B9062C16DD0024FFF7BCFEBD
:1063400012E00D48006D012802D1FFF7EFFE0BE0CF
:106350000948006D022805D1022C05DB0024FFF757
:10636000ABFE01E0FFF7DAFEFFF720FD6A460021F1
:106370000A2001F0B9F9D9E78809002010B54FF4D7
:1063800000410248FEF7FFFE10BD0000000801407A
:1063900010B54FF400410248FEF7F3FE10BD0000B7
:1063A000000801400E4890F84C0000F0F000402832
:1063B00005D10B4890F84C0000F00F0018B10948C7
:1063C0000949086070470020054981F8B001074974
:1063D00003484165012180F8B11100BFF2E70000D8
:1063E00088090020E15D0008940000200000B4420C
:1063F00010B51E4890F84C0000F0F000102803D0B3
:106400001B481C49086010BD0020184981F8B001E4
:10641000084690F84C0018280CD10121134880F848
:10642000B1110146486B4FF0804106F0F7F90F4972
:10643000486518E00D4890F84C0014280CD1012153
:106440000A4880F8B1110146886B4FF0804106F090
:1064500077FD0649486506E00021044880F8B1113F
:10646000D0F8F411416500BFCDE700008809002095
:10647000E15D0008940000202DE9F04F89B08246CC
:106480000C464FF0000BD9460021504606F064FC44
:106490002FD8504606F096F9074605F03BFA054618
:1064A00005F048FE8146504606F08CF9CDE9000122
:1064B00005F030FA05460E46504606F083F90746C9
:1064C0002A46334606F094F8CDE9040199FBF4F02E
:1064D00004FB1095284605F08AFECDE90201DDE9AE
:1064E000042305F0DFFBCDE9060105F0A9FB834697
:1064F00056E02AF0004B584606F064F9074605F0CE
:1065000009FA054605F016FE814699FBF4F004FBF6
:106510001099584606F056F9CDE9000105F0FAF950
:10652000CDE90201584606F04DF90746DDE90223A0
:1065300006F05EF805460E46484605F058FE2A4627
:106540003346CDE9040105F0ADFB00221346CDE949
:10655000060105F0B3FD02D14FF0000B20E020460C
:1065600006F0CEFA06463146584606F0CBF9054607
:1065700006F08AFA00F10109504606F023F921F0ED
:106580000048074609FB04F005F031FE3A46434651
:10659000CDE9060106F02CF8054605F051FB8346CF
:1065A000584609B0BDE8F08F08B5002000F06EF83D
:1065B00002F0FEF95CE02F4A2F49002000F08CF831
:1065C00000283AD12B4800782C49898A884202D089
:1065D00028480078D0B90020294908802949088036
:1065E000254802882849234801F0D2FF2549088020
:1065F00008460088002836DD1E48007898B3224AF5
:1066000008460188002000F0BFF82CE01C480188F3
:106610000088401C1A4A108047F23050814222DB29
:10662000FFF7ACFE6A460021642001F05DF8FFF739
:10663000AFFE00201249088015E01148018800884B
:10664000401C0F4A108047F2305081420BDBFFF7AD
:1066500095FE6A460021642001F046F8FFF798FE97
:106660000020074908806A460021012001F03CF81B
:10667000A1E700002C4100208400002088090020B0
:1066800086000020820000200040002010B5044653
:1066900014B1012C14D109E004F04CF80A480B495C
:1066A00008600B480968C1F860020AE004F042F88B
:1066B00008480649486006484968C1F8600200E099
:1066C00000BF00BF10BD0000A04400200401002056
:1066D00015480008044700202DE9F04104460E4605
:1066E0009046284850F824000079AB2842D125482C
:1066F00050F824004179234850F824004079401C88
:10670000204A52F824205071062938DB56201D49B2
:1067100051F82410087100201A4951F824104871CA
:10672000184850F82400008830800020154951F89E
:10673000241008803188134A52F82420901DFCF759
:106740007DFD0746DFB900250EE00E4850F8240015
:10675000801D405D08F80500FF210A4850F824001C
:10676000801D4155681C85B23088A842EDDC0020B0
:10677000BDE8F0810020034951F8241048714FF022
:10678000FF30F5E7040100202DE9F04105460E46F3
:106790009046002406E000BF00BF00BF00BF00BF5E
:1067A000601C84B24CF250308442F4DB002406E0DA
:1067B00000BF00BF00BF00BF00BF601C84B24CF22E
:1067C00050308442F4DB002409E018F80410154826
:1067D00050F8250000F599700155601C84B2B44250
:1067E000F3DB104951F8251001F599703146FCF79B
:1067F00025FD07460B4850F8250000F59970875590
:106800003A0A084850F8250000F59970711C425466
:10681000B21C90B2034A52F82520D2F86012884781
:10682000BDE8F0810401002010B503F071FF0024E1
:1068300011E00221204600F013F90020C4EBC4014E
:10684000064A02EB81010876C4EBC40102EB810128
:106850008876601CC4B2012CEBDB10BD84440020A0
:1068600008B5002400BF00F09BF9EFE0784890F8ED
:10687000B10100287ED0764890F8F801C0F34010AE
:10688000002877D1724890F8F801C0F30010002872
:10689000F7D16F4890F8F80100F001000028F0D11E
:1068A0006B4890F8F801C0F340000028E9D168482F
:1068B000D0F8F801C0F340700028E2D16448D0F865
:1068C000F801C0F380600028DBD1614890F8B00186
:1068D000012807D15E4908694FF0804106F012F89F
:1068E000044600E000245B48007820B1012854D021
:1068F00002287CD16CE0564AD2F8B811506D06F0EF
:106900001FFB064652480169304606F025FA12D2AE
:1069100002214F4880F8B4114F4801780078401C9C
:106920004D4A1070C82937DD02204A4908700020FE
:106930001146087030E046480169484806F040F9C1
:106940000646434AD2F8B811506D06F0F9FA0746E8
:10695000314606F001F914D201213D4880F8B41106
:106960003D4801780078401C3B4A1070C82913DD6F
:10697000012000E050E037490870002011460870FF
:106980000AE0FFF751FF00203249087032490870D1
:1069900000212F4880F8B4113DE02D4AD2F8B811FB
:1069A000506D06F0CDFA0646214606F0D5F905D918
:1069B000274890F8F801C0F3800028B1FFF734FFB2
:1069C00000202449087002E0002000F001F922E0D4
:1069D0001F4A516DD2F8B80106F0B2FA06462146B8
:1069E00006F0BAF907D91A4890F8F80100E00CE06F
:1069F000C0F3C00028B1FFF717FF00201549087049
:106A000002E0002000F00AF905E0FFF70DFF00208A
:106A10001049087000BF08E0FFF706FF00200D498D
:106A2000087000210A4880F8B4110020FEF72CFEFF
:106A3000074981F8B2010020FEF71CFE044981F8E5
:106A4000B3016A460021012000F04EFE0EE700006F
:106A5000880900208800002089000020000080BFF5
:106A600070B504460D46012D0DD1C4EBC4020D4B8B
:106A700003EB82021189C4EBC40203EB820250686B
:106A8000FEF781FB0CE0C4EBC402064B03EB820271
:106A90001189C4EBC40203EB82025068FEF771FB5C
:106AA00070BD00008444002070B504460D46012DE1
:106AB0001FD12148B0F8440068B9C4EBC4021F4B91
:106AC00003EB8202918AC4EBC40203EB82021069D9
:106AD000FEF759FB2EE0C4EBC402184B03EB820215
:106AE000918AC4EBC40203EB82021069FEF749FBF2
:106AF00020E0022D1ED11048B0F8440068B9C4EB64
:106B0000C4020E4B03EB8202918AC4EBC40203EB76
:106B100082021069FEF735FB0CE0C4EBC402074BA0
:106B200003EB8202918AC4EBC40203EB8202106978
:106B3000FEF729FB70BD0000880900208444002076
:106B400008B50121202001F0E1FF4FF44040ADF8ED
:106B5000000010208DF8030003208DF80200694624
:106B60000D48FEF731FA4FF400410B48FEF709FBE0
:106B700009480A4948604FF4004008812020086015
:106B8000054808614FF4804088822020C8600020BA
:106B90000876887608BD0000001401408444002077
:106BA00010B5FFF7CDFF03F0ABFB10BD08B500BF7C
:106BB0000CE0FDF7C5FFFEF771F8FDF7DDFEFDF710
:106BC000ABFE6A460021052000F08EFDF1E70000D3
:106BD00010B50446012C1CDC0E480078A04207D1F9
:106BE000C4EBC4000C4901EB8000007E012810D0EA
:106BF000FFF71AFE0120C4EBC401074A02EB810132
:106C000008760448047001210078FFF74DFF03F077
:106C10006DFD10BDFC0000208444002010B504462A
:106C2000012C1CDC0E480078A04207D1C4EBC40044
:106C30000C4901EB8000007E022810D0FFF7F4FD24
:106C40000220C4EBC401074A02EB81010876044824
:106C5000047002210078FFF727FF03F047FD10BD05
:106C6000FC0000208444002008B54FF4A06000F030
:106C700065F81D208DF8000000208DF8010001202E
:106C80008DF802008DF80300684600F01FF80B2015
:106C90008DF8000000208DF8010002208DF8020020
:106CA00001208DF80300684600F010F834208DF8BC
:106CB000000001208DF8010000208DF80200012065
:106CC0008DF80300684600F001F808BD70B500219A
:106CD00000230F22C47804B3154C246804F4E06444
:106CE000C4F5E064210AC1F10403CA40447804FAFF
:106CF00003F184781440214309010E4C0678A15514
:106D0000047804F01F050124AC4005786D11AD0036
:106D100005F1E025C5F8004109E0047804F01F05FD
:106D20000124AC40044D0678761145F8264070BD2C
:106D30000CED00E000E400E080E100E002490143E6
:106D4000024A1160704700000000FA050CED00E0F7
:106D50007047000010B50348006810B10148006892
:106D6000804710BD1000002070B5044600F082F886
:106D700000202B4908702B4908702B4908702B49BB
:106D800008602B4908602B4908702B4908702B4973
:106D900008702B4908602B4908602B4908602B4874
:106DA000006858B12A48056845B12848066803E0DC
:106DB000761E002028602D1D002EF9D100202549C7
:106DC000086025490860254908602549086025496B
:106DD000086025490860254908602549087000F0C9
:106DE000BDFE00F0EBFE204600F07CFF208800B1E5
:106DF00070BD204600F094FF208800B1F8E72046DF
:106E000000F040FD208800B1F2E7204601F066FA6C
:106E1000208800B1ECE7FFF79BFF00BFE8E7000028
:106E2000240000202C0000203C00002058000020FE
:106E30005C0000202D0000202E0000202F000020EC
:106E40003000002034000020380000203CD1000831
:106E500038D1000804000020080000200C000020A9
:106E60001000002014000020180000201C0000204A
:106E700046000020064800680649096800EB8100CA
:106E8000054908600846006820F007000860704760
:106E900038D100083CD100086000002010B5002463
:106EA0002C480078012800D010BD00BFFBF7B2F9D4
:106EB000044600BF2848007828B900BF2046FBF7E9
:106EC000ADF900BFF0E724480078401E2249087061
:106ED00008460078002805DD00BF2046FBF79EF934
:106EE00000BFE1E71D480078002805DD00BF20460F
:106EF000FBF794F900BFD7E700F01CFE18490870B3
:106F00000846007800EB4000164951F82000164969
:106F100008600846006815490968884205D100BF25
:106F20002046FBF77BF900BFBEE70F480068406CC6
:106F3000401C0D49096848640D480068401C0C4914
:106F40000860FBF7FFF900BF2046FBF767F900BFB9
:106F500000BFA9E72C000020240000203C000020F6
:106F60002E000020A00700205C0000205800002018
:106F70004000002010B500241E480078002800DDE5
:106F800010BD1D480078002800DDF9E700BFFBF7C1
:106F900041F9044600BF00F0CDFD184908700846CD
:106FA000007800EB4000164951F8200015490860B0
:106FB0000846006814490968884205D100BF204688
:106FC000FBF72CF900BFDBE70E480068406C401C63
:106FD0000C49096848640D480068401C0B4908606A
:106FE000FBF7ABF900BF2046FBF718F900BF00BF65
:106FF000C6E70000240000203C0000202E000020F6
:10700000A00700205C000020580000204000002065
:1070100010B5044612480078E8B900F08BFD11491C
:10702000087008460078104908700E48007800EB98
:1070300040000E4951F820000D49086008460068DC
:107040000C490860012006490870FBF765F943F612
:107050009920208002E045F68A60208010BD000063
:107060002C0000202E0000202D000020A007002072
:107070005C000020580000202DE9FF4F85B0044639
:107080009346DDE91985159F139E0020029056480E
:107090000078002805DD47F24A10288009B0BDE8D5
:1070A000F08F1CB947F2AD102880F7E7BBF1000F55
:1070B00003D147F24F102880F0E71EB946F62F6043
:1070C0002880EBE749480068874203D246F63060E3
:1070D0002880E3E71498B84203D346F6316028804D
:1070E000DCE71298202803D346F273202880D5E7E6
:1070F00012981F2806D13E48844203D046F27320DE
:107100002880CBE7204600F017FE0020288008F0FA
:10711000010088B108F0020070B1B246002004906E
:1071200007E00020CAF800000AF1040A0498401C95
:1071300004900498B842F4D3149806EB80000390AE
:10714000CDE9007832465846039B089900F022FAB0
:107150008246129884F82300C4F800A01898606052
:10716000A4F824804FF0000908E0002104F1380061
:1071700040F8291009F1010000F0FF09B9F1000FF2
:10718000F3D0204600F03AF800BF00BFFBF742F80A
:10719000029000BFFCF708F800BF94F8230000F04D
:1071A000E9FC204600F052FD12480088401C1149BD
:1071B000088011480078012809D000BFFCF70EF8BC
:1071C00000BF0298FBF72AF800BF00BF66E700BFC8
:1071D000FCF704F800BF0298FBF720F800BF00BFDF
:1071E000FFF7C8FE00BF59E72400002068D100085F
:1071F00038070020440000202C00002010B5044671
:107200000348006818B1204601490968884710BD45
:107210000400002070B504460D460026444800785E
:10722000002803DD47F24E10288070BD414884429B
:1072300003D147F24C102880F7E79CB900BF00BF8C
:10724000FAF7E8FF064600BFFBF7AEFF00BF3A487B
:10725000046800BFFBF7C2FF00BF3046FAF7DEFF4D
:1072600000BF00BF00BF00BFFAF7D4FF064600BF53
:10727000FBF79AFF00BF94F8220008282DD2DFE820
:1072800000F004090E10080A0F11204600F0FCFC63
:1072900030E02FE000BF204600F01EFF2AE000BFD4
:1072A00000BF00BF94F82000082810D2DFE800F0EB
:1072B00004070508090A0B0600BF00BF08E000BF6D
:1072C00000BF00BF00BF204600F088FB00E000BF09
:1072D00000BF204600F000FF0CE000BFFBF77EFF80
:1072E00000BF3046FAF79AFF00BF00BF46F62D6098
:1072F00028809AE700BF204600F022F80F48008857
:10730000401E0E490880204600F016FDFF2084F83C
:10731000220000BFFBF762FF00BF3046FAF77EFF96
:1073200000BF00BF00202880FFF724FE00BF7CE7DD
:1073300024000020380700205800002044000020CE
:1073400010B504460348006818B120460149096891
:10735000884710BD0800002010B5044603480068A7
:1073600018B1204601490968884710BD0C0000206B
:107370002DE9F04780460E4614461D464FF00009A1
:1073800071480078002805DD46F2AE102880002004
:10739000BDE8F0871EB1B6F5004F02D100E000BF96
:1073A00004E045F6256028800020F1E700BF0CB11D
:1073B0000020206000BF00BFFAF72CFF814600BF0D
:1073C000FBF7F2FE00BF61480068C06A90B35F48F7
:1073D0000068C06A401E5D490968C8625B48006871
:1073E000C76A1CB159480068806A2060FBF720FF1B
:1073F00056490968896A401A54490968886553489A
:107400000068C06D51490968896D884205D24F48AE
:107410000068806D4D490968C86500BFFBF7DEFE56
:1074200000BF4846FAF7FAFE00BF00BF00202880E0
:107430003846ADE7FFE706F4004068B100BFFBF750
:10744000CDFE00BF4846FAF7E9FE00BF00BF46F296
:10745000B010288000209BE73D48007800280DDD13
:1074600000BFFBF7BBFE00BF4846FAF7D7FE00BFE0
:1074700000BF46F663502880002089E74346072274
:107480000021084600F036FA00BFFBF7A7FE00BF58
:107490004846FAF7C3FE00BF00BFFFF76BFD00BF11
:1074A00000BFFAF7B7FE814600BFFBF77DFE00BFC5
:1074B0002648006890F8210020B1012821D0032837
:1074C0002FD127E0D4B121480068806A2060FBF703
:1074D000AFFE1E490968896A401A1C490968886517
:1074E0001A480068C06D19490968896D884205D23B
:1074F00016480068806D15490968C8650020288015
:1075000013E01CB111480068806A206046F2A9109F
:1075100028800AE00CB10020206047F2D9202880A2
:1075200003E046F62E60288000BF00BF07480068D1
:10753000C76A00BFFBF752FE00BF4846FAF76EFE6F
:1075400000BF00BF384623E7240000205800002079
:107550003C0000202DE9F04106460D4614461DB1C1
:10756000B5F5004F02D100E000BF05E045F625600B
:1075700020800020BDE8F08100BFFBF759FE804667
:10758000234642462946304600F016FC0746384658
:10759000F0E70000F0B50446DDE9055602EB850092
:1075A00020F007004FF0807C071F3846C7F800C066
:1075B000071F38463C60DFF89CC0071F3846C7F8F5
:1075C00000C04FF0123C071F3846C7F800C04FF00C
:1075D000033C071F3846C7F800C04FF0023C071FA6
:1075E0003846C7F800C0071F38463B60071F3846BB
:1075F00039604FF0113C071F3846C7F800C04FF004
:10760000103C071F3846C7F800C04FF0093C071F61
:107610003846C7F800C04FF0083C071F3846C7F887
:1076200000C04FF0073C071F3846C7F800C04FF0B6
:10763000063C071F3846C7F800C04FF0053C071F3F
:107640003846C7F800C04FF0043C071F3846C7F85B
:1076500000C0F0BDA17D000870B51F48006810B1E2
:107660001D4800688047FBF7E3FD04461B4800689F
:107670001B490968884210D018480068C06C201A5D
:1076800016490968886415480068006D134909683F
:10769000896C084411490968086511480068C46488
:1076A000FBF76CFD05460D480068006EA84202D24B
:1076B0000A480068056609480068406E094909687B
:1076C000884204D2074800680449096848660020D7
:1076D0000449086070BD0000180000205800002018
:1076E0005C000020380000202DE9F04105460E46E0
:1076F000144600272A480078002804DD47F2752048
:107700002080BDE8F08127480078002803DD46F698
:1077100063502080F5E736B1022E05D0042E0AD042
:10772000082E09D101E000BF00BF1DB947F27E203D
:107730002080E6E704E003E045F625602080E0E7EE
:1077400000BF00BF00BFFAF765FD074600BFFBF7AB
:107750002BFD00BF2346324629461348006800F03F
:107760005DFC208848B100BFFBF738FD00BF3846FC
:10777000FAF754FD00BF00BFC3E70B48006800F0F4
:1077800083FA00BFFBF72AFD00BF3846FAF746FD33
:1077900000BF00BFFFF7EEFB0020208000BFB0E776
:1077A000240000203C0000205800002008B500F014
:1077B00009F86A4600210248FFF7CCFE08BD000028
:1077C0002009002010B50348006810B10148006886
:1077D000804710BD1C00002010B5002400BF00BF72
:1077E000FAF718FD044600BFFBF7DEFC00BF0948AE
:1077F0000078401C0749087000BFFBF7EFFC00BF92
:107800002046FAF70BFD00BF00BFFFF7CFFFFFF7E1
:1078100045FB10BD2400002001464A1E4FF0E02326
:107820005A61084A106820F07F4000BF10601A4675
:10783000126942F005021A611A46126942F0020208
:107840001A61704720ED00E0002418E000BF00BF7F
:10785000FAF7E0FC044600BFFBF7A6FC00BF0848AF
:107860000068401C0649086000BFFBF7B7FC00BF7A
:107870002046FAF7D3FC00BF00BFFFF76BFAE5E73D
:107880002000002010B58AB0044600200E49086090
:107890000B2000210591CDE90704069108460B490C
:1078A00009680B4A12680B4B1B68CDE90132CDE920
:1078B00003101F200023084A08A100900C48FFF77E
:1078C000DBFB0AB010BD00002000002014D100082E
:1078D00010D100080CD100084978000875432F4FDB
:1078E000532D4949492049646C65205461736B00EC
:1078F000380700202DE9F04105460C4616461F4684
:107900001248006880F8206000201049096881F85A
:10791000210039460D48006800F0ECF96CB104F123
:107920000408EC60012229460848006800F010F8BD
:107930002946404600F01FF806E000200349096888
:10794000C88402490968C861BDE8F0815800002078
:1079500010B5C284C16100230AE000244C600C60B1
:107960000C614C610C83CC61886020315C1CA3B23B
:107970009342F2DB10BDF0B58E6896F8235007896C
:107980003FB90127078100274F600F600160416008
:1079900023E007897F1C0781026806E0946894F859
:1079A0002370AF4200DD02E05268002AF6D100BF2A
:1079B00032B900274F6043680B60596041600CE0AA
:1079C00017682FB9116000270F604A60016004E05A
:1079D00013680B604A6059601160F0BD2DE9F041F9
:1079E0000446E569E68C0AE0D5F80C8008F1040746
:1079F0002946384600F00AF82035701E86B2002E5F
:107A0000F2DC0020E084E061BDE8F08110B504897B
:107A1000012C03D100240460446011E00C6824B9F7
:107A20004A680024146002600AE04C6824B90B68BC
:107A300000245C60436003E00B684A685A6013608E
:107A40000489641E048100244C600C6010BD2DE983
:107A5000F84306460C4617469846089D94F82200BF
:107A600008284DD2DFE800F00405080906072B2C92
:107A700000BF00BF00BF44E000BF94F8200003280F
:107A800007D143463A4621463046009500F03CF87F
:107A900000E0A56216B12046FFF7A0FF94F822008F
:107AA000032802D1204600F017FB204600F098F88A
:107AB00000202034A070607004F8200921E000BF8D
:107AC00094F82000032807D143463A462146304621
:107AD000009500F019F800E0A56216B12046FFF706
