:020000040800F2
:102000006050002041220008492200084B220008AD
:102010004D2200084F220008512200080000000055
:102020000000000000000000000000005322000833
:1020300055220008000000004F23000839790008ED
:102040005B2200085B2200085B2200085B2200087C
:102050005B2200085B2200085B2200085B2200086C
:102060005B2200085B2200085B2200081147000881
:102070005B2200085B2200085B2200085B2200084C
:102080005B2200085B2200085B2200085B2200083C
:102090005B2200085B2200085B2200085B2200082C
:1020A0005B2200085B2200085B2200085B2200081C
:1020B0005B22000865A800085B2200085B2200087C
:1020C0005B2200085B2200085B2200085B220008FC
:1020D0005B2200085B2200085B2200085B220008EC
:1020E000914D0008A58F00085B2200085B220008C4
:1020F0005B2200085B2200085B2200085B220008CC
:102100005B2200085B2200085B2200085B220008BB
:1021100095AD00085B2200085B2200085B220008E6
:102120005B2200085B2200085B2200085B2200089B
:1021300000F002F800F05AF80AA090E8000C82447F
:102140008344AAF10107DA4501D100F04FF8AFF25C
:10215000090EBAE80F0013F0010F18BFFB1A43F085
:102160000103184790B50000B0B500000A444FF0D5
:10217000000C10F8013B13F0070408BF10F8014BE6
:102180001D1108BF10F8015B641E05D010F8016B2B
:10219000641E01F8016BF9D113F0080F1EBF10F88F
:1021A000014BAD1C0C1B09D16D1E58BF01F801CBB2
:1021B000FAD505E014F8016B01F8016B6D1EF9D535
:1021C0009142D6D37047000000230024002500264A
:1021D000103A28BF78C1FBD8520728BF30C148BF8A
:1021E0000B6070471FB51FBD10B510BD00F05EF845
:1021F0001146FFF7F7FF09F09DFC00F07CF803B4EF
:10220000FFF7F2FF03BC00F07FF8000072B67047E2
:1022100062B67047EFF3108072B6704780F3108893
:10222000704730BF704720BF7047B0FA80F07047EA
:1022300090FAA0F0B0FA80F0704790FAA0F07047E2
:102240000948804709480047FEE7FEE7FEE7FEE74A
:10225000FEE7FEE7FEE7FEE7FEE7FEE70448054986
:10226000054A064B7047000095A700083121000879
:10227000604A002060500020604C0020604C00202C
:1022800070477047704710B500F008F8006810BD3F
:1022900010B5044600F002F8046010BD0048704715
:1022A000FC49002000487047FC4900207546FFF7B4
:1022B000F9FFAE4605006946534620F00700854603
:1022C00018B020B5FFF7CAFFBDE820404FF0000668
:1022D0004FF000074FF000084FF0000B21F007010E
:1022E000AC46ACE8C009ACE8C009ACE8C009ACE851
:1022F000C0098D46704710B50446AFF300802046F4
:10230000BDE81040FFF77BBF01491820ABBEFEE7D8
:1023100026000200704700001D484FF0FF010170C9
:10232000002080F309881B48016881F308881A4857
:102330004FF08051016062B6FEE717484FF08051C0
:102340000160704714484FF080510160704772B6C9
:10235000EFF3098028B1203880E8F00F0F490968B1
:10236000086000B50E4880475DF804EB0D480E4943
:102370000A78027009480D490A680260106890E8FE
:10238000F00F203080F309884EF0F40E62B67047EB
:1023900022ED00E06000002004ED00E05800002085
:1023A000B97700082D0000202E0000205C000020DE
:1023B00010B502210F4800F0F5F800210E4802F098
:1023C00047FA32200C490839C86001210A4802F056
:1023D0003FFA0121074800F0F3F80648083000688A
:1023E00040F002000349083108600121014800F073
:1023F00086F910BD002401400800024000B591B0EC
:102400000121480206F076FC0121082006F072FC4A
:102410000121102006F06EFC4FF4004006F03EFC57
:102420000120ADF8400000208DF8430010A9584865
:1024300002F03CFE0220ADF8400000208DF8430081
:1024400010A9534802F032FE0120ADF840000020F0
:102450008DF8430010A94F4802F028FE0820ADF87F
:10246000400000208DF8430010A94A4802F01EFEEB
:102470000420ADF8400000208DF8430010A9454825
:1024800002F014FE0121084606F014FC42480090B8
:1024900042480190002002903220039000200490D6
:1024A0008020059040000690800007900020089052
:1024B0004FF40050099000200A906946384802F015
:1024C000F2F90121364802F0C3F901220221344811
:1024D00002F0E0F900200B9001208DF830008DF81B
:1024E00031004FF460200D9000200E9005208DF8F3
:1024F0003C000BA928484C3800F078F8072301224B
:10250000082125484C3800F099F8072302220921B8
:1025100021484C3800F092F8072303220A211E4874
:102520004C3800F08BF8072304220C211A484C3851
:1025300000F084F8072305220D2117484C3800F0DD
:102540007DF8012114484C3800F03AF80121124876
:102550004C3800F02AF810484C3800F0CBF800BF97
:102560000D484C3800F037F80028F9D10A484C38AB
:1025700000F0D0F800BF08484C3800F02CF80028D4
:10258000F9D1012104484C3800F0B9F811B000BD70
:10259000000C0140001001404C2401406C49002017
:1025A00008000240CA430260704721B1826842F0CD
:1025B0000102826003E0826822F0010282607047BB
:1025C00021B1826842F48072826003E0826822F462
:1025D000807282607047014600208A6802F004021F
:1025E0000AB1012000E000207047000030B502462B
:1025F0000020002350680F4C20400D790C6844EAFD
:1026000005242043506090680B4C2040D1E90254CF
:102610002C434D7944EA450420439060D06A20F46D
:1026200070000C7C641EE4B2234340EA0350D06285
:1026300030BD0000FFFEF0FFFDF7F1FFF0B50446EE
:102640000D4600200021092D11DDE068A5F10A06E4
:1026500006EB4607072606FA07F18843A5F10A06A6
:1026600006EB460603FA06F10843E0600CE0206939
:1026700005EB4507072606FA07F1884305EB4506F3
:1026800003FA06F108432061072A0FDA606B561E31
:1026900006EB86071F2606FA07F18843561E06EB4F
:1026A000860605FA06F10843606322E00D2A0FDA78
:1026B000206BD61F06EB86071F2606FA07F1884314
:1026C000D61F06EB860605FA06F10843206310E0E4
:1026D000E06AA2F10D0606EB86071F2606FA07F14F
:1026E0008843A2F10D0606EB860605FA06F10843BB
:1026F000E062F0BD816841F008018160704721B15E
:10270000826842F4A002826003E0826822F4A002A0
:1027100082607047816841F0040181607047000069
:1027200053485449086054484860544888605448A5
:10273000C860544808615448486154488861544806
:10274000C8615448086254484862544888625448F2
:10275000C8625448086354484863544888635448DE
:10276000C8655448086654484866544888665448C2
:10277000C866544808675448C1F884005348C1F8F3
:1027800088005348C1F898005248C1F89C0052484C
:10279000C1F8A0005148C1F8AC005148C1F8B000E0
:1027A0005048C1F8B4005048C1F8B8004F48C1F8CB
:1027B000BC004F48C1F8C0004E48C1F8C4004E48A4
:1027C000C1F8C8004D48C1F8CC004D48C1F8D00050
:1027D0004C48C1F8DC004C48C1F8E0004B48C1F857
:1027E000E4004B48C1F8E8004A48C1F8EC004A4808
:1027F000C1F844014948C1F848014948C1F85001AD
:102800004848C1F854014848C1F864014748C1F834
:1028100068014748C1F86C014648C1F87001464854
:10282000C1F874014548C1F878014548C1F88C01E8
:102830004448C1F890014448C1F894014348C1F8A4
:1028400098014348C1F89C014248C1F8A0014248A0
:10285000C1F8A4014148C1F8A8014148C1F8BC0130
:102860004048C1F8C0014048C1F8C40170470000A9
:102870004D8E00085C420020859F0008A59F00083F
:10288000DDA10008FDA10008718E00081994000860
:10289000918E0008A18E0008BD8B0008CD8B00082A
:1028A000DD920008ED920008598F0008698F00083A
:1028B0005D9D0008859C0008659B0008C59B00087D
:1028C000259C0008E59C0008A99A0008859300084B
:1028D000018F000871930008B18E00082D9A00083E
:1028E000499A0008159700083197000829960008B2
:1028F00045960008BD9D0008D99D0008599500081F
:1029000075950008D98E00085D8C00080D8C0008B4
:10291000758C0008DD8B000889940008FD9900087B
:102920004D94000879980008B9980008D5980008D7
:102930004D99000869990008E99A0008059B00086C
:10294000819E00084D9E00083598000801980008F7
:10295000C1940008DD940008B19E0008CD9E0008D7
:10296000B5930008F1950008499F000870B5002450
:10297000304890F84C0000F0F000802805D12D4838
:1029800090F84C0000F00F0030B100202A49088078
:102990002A482B49086070BD0020264981F8B00103
:1029A0000021244880F8B11123480088401C2249A6
:1029B000088008460088B0F5967F00DAEBE7002033
:1029C0001D4908801B4890F8F801C0F3401058BB1F
:1029D000184890F8F801C0F3001028BB1548D0F84B
:1029E000B81118480AF046FD054612480168284605
:1029F0000AF0AEF90446144920460AF047FB07D214
:102A0000124920460AF042FC02D20A48046002E061
:102A10000020084908600748D0F8FC0120F00100B8
:102A2000401C0449C1F8FC0100210248C16400BFF8
:102A3000B1E700008C090020A8000020C55E000856
:102A4000980000200000B44200002041000020C196
:102A50001CB5002400BF00F027F821E069460020E3
:102A600002F00AFC48B90F48016800980AF070F9B2
:102A70000C49C1F8B80100240DE0142C02DA601CE6
:102A800084B208E00748D0F8F80120F010001030B8
:102A90000449C1F8F80101AA0021022004F0D4FE83
:102AA000DCE700008C09002008B507F029FC03F0E2
:102AB000B7FB6946182007F0CDFB9DF800003828C9
:102AC00001D1002008BD4FF0FF30FBE708B500BF83
:102AD0000BE000F033FC02F025FC0449C1F8F401DE
:102AE0006A4600211E2004F0AFFEF2E78C090020A8
:102AF00010B5204890F84C00282803D01E481F49E4
:102B0000086010BD00201B4981F8B001486B4FF0F0
:102B10007E510AF01DF904461648816D20460AF0E0
:102B2000B5FB08D21349486B4FF07E510AF010F9FB
:102B30001049486518E00F49886B4FF07E510AF044
:102B400099FC04460B48816D20460AF09FFA08D292
:102B50000849886B4FF07E510AF08CFC05494865A6
:102B600002E00448816D41650121024880F8B111FD
:102B700000BFC6E78C090020252C00089C0000201F
:102B800010B50C4890F84C00252803D00A480B4992
:102B9000086010BD0020074981F8B001888F0AF055
:102BA00061FA044948650121024880F8B11100BF6B
:102BB000EFE700008C090020252C00089C00002075
:102BC00010B5144890F84C0000F0F000202818D1FF
:102BD0001048D0F8F801C0F3807068B90D48D0F8FB
:102BE000F801C0F3006038B908F018FA00F082FA72
:102BF0000948006880470BE00021064880F8B111C1
:102C000006E00648064908600021024880F8B11134
:102C100010BD00008C0900209C000020C55E00084B
:102C20009800002000211F4880F8B11190F84C0056
:102C3000242803D11C481D49086032E0194890F847
:102C40004C00252803D11A481849086029E0154886
:102C500090F84C00282806D1164814490860002135
:102C60001048C1651DE00F4890F84C00212803D1A1
:102C700011480E49086014E00A4890F84C002228D8
:102C800003D10E48094908600BE0064890F84C0053
:102C9000202803D10A480549086002E009480A498A
:102CA000086070478C090020F12F00089C0000206C
:102CB000812B0008F12A0008CD2C0008E52E000821
:102CC000592F0008C55E00089800002010B57C4808
:102CD00090F84C00212808D000207A4908707A49E1
:102CE00008807A487A49086010BD0020744981F84C
:102CF000B0017448007805287ED2DFE800F0032D8B
:102D00006581B80073496E484165012180F8B111B1
:102D1000014608696F490AF01BF804466848D0F874
:102D2000B81120460AF0B2FA15D865480169694819
:102D30000AF0A0FB04466248D0F8B81120460AF019
:102D4000A5F908D80120644908705E49087000217F
:102D50005B4880F8B111B0E00121594880F8B11109
:102D60005D49097801EB8101490001F13C000AF05D
:102D700061F953494865486D58490AF087FA0AD8FD
:102D800001205549087003204E49087000214C4825
:102D900080F8B11117E04A49486D4FF07E510AF0B2
:102DA00069FB04464648D0F8B81120460AF06EF98F
:102DB00009D20220434908700020434908800021BD
:102DC0003F4880F8B11178E000213D4880F8B1110A
:102DD0003D4801880088401C3B4A108042F6E06074
:102DE00081420CDB00201146088001203549087023
:102DF00039480078401C00E053E0374908705CE037
:102E000001212F4880F8B1113349097801EB810184
:102E10004900C1F178000AF00DF929494865486D6B
:102E20002F490AF033F909D801202B4908702549A8
:102E300008700021224880F8B11117E02049486D40
:102E40004FF07E5109F084FF04461D48D0F8B811B8
:102E500020460AF01BFA09D804201A4908700020FD
:102E6000194908800021164880F8B11125E0002199
:102E7000134880F8B111144801880088401C124A98
:102E8000108042F6E06081420ADB00201146088093
:102E900003200C49087010480078401C0E49087047
:102EA0000BE0002007490870074908800A490870AC
:102EB0000021034880F8B11100BF00BF00BF13E735
:102EC0008C090020AA000020AC000020252C00085E
:102ED0009C00002000007042AE0000200000F44280
:102EE0000000684210B5174890F84C00222803D023
:102EF00015481649086010BD0020124981F8B0013C
:102F0000D1F8B80112490AF0B5FA044611490AF09D
:102F1000BDF908D20B49886B4FF080410AF0AAFA3C
:102F20000849486507E00749486B4FF0804109F0C0
:102F30000FFF044948650121024880F8B11100BF24
:102F4000D9E700008C090020252C00089C000020F7
:102F50000000B442CDCCCC3D10B5224890F84C00D6
:102F6000202803D020482149086010BD01201D49B8
:102F700081F8B001886B4FF07E510AF07BFA04466D
:102F80001848D0F8F41120460AF080F808D81549FE
:102F9000886B4FF07E510AF06DFA124948651AE0CD
:102FA0001049486B4FF07E5109F0D2FE04460D489F
:102FB000D0F8F41120460AF069F908D80949486B9D
:102FC0004FF07E5109F0C4FE0649486503E005480C
:102FD000D0F8F41141650121024880F8B11100BF19
:102FE000C3E700008C090020252C00089C0000206D
:102FF00010B50C4890F84C00242803D00A480B491F
:10300000086010BD0020074981F8B001888F0AF0E0
:1030100029F8044948650121024880F8B11100BF30
:10302000EFE700008C090020252C00089C00002000
:1030300010B501214FF0C05005F04CFE012005F005
:1030400085FA002000F042F8002000F02BF800F094
:103050001FF8002005F07AFA10BD10B5042000F02A
:1030600027F84AF6AA21884201D1002010BD4FF06E
:10307000FF30FBE710B5012005F068FA4AF6AA21F7
:10308000042000F029F8002005F060FA10BD0000CF
:103090000348008840F001000149088070470000A3
:1030A000346C0040014908607047000088860D427A
:1030B00008B501460020009003480090009808449D
:1030C00000900098008808BD006C0040014908602D
:1030D0007047000000860D4208B500220092044AA5
:1030E0000092009A02440092009A116008BD00000C
:1030F000006C00400E4890F84C00242817D00C4873
:1031000090F84C00252809D10948D0F8F801C0F3FF
:10311000007060B920210648C16408E00448D0F876
:10312000F801C0F3007010B125210148C164704757
:103130008C09002001460846044A1268904203D9CF
:10314000024A1268801A00E00020704774000020D4
:1031500070B5002500BFFFF75DF8054600BF0648C3
:10316000046800BF2846FFF759F800BF2046FFF764
:10317000E1FF0646304670BD7800002070B500259E
:10318000FFF7E6FF044600BFFFF744F8054600BF1F
:1031900000200449086000BF2846FFF73FF800BF41
:1031A000204670BD7800002000B509480088401C0A
:1031B000074908800748008818B900F039F806491F
:1031C000086004480088401C0249088000BD0000D7
:1031D000680000206A0000206C00002000B50F4845
:1031E0000088401E0D4A108010460088A0B900F0EB
:1031F0001FF80B4A1060104600680A4A1268811ACC
:1032000009480068884201D2074801600748006801
:10321000884201D20548016000BD00006A0000201C
:10322000700000206C000020780000207C0000204E
:103230000148406870470000001000E030B50246C9
:103240000B46002100244FF6FF7000BF12E0555CD2
:10325000684000240AE000F0010525B140104AF260
:103260000105684000E04010651CECB2082CF2DB60
:103270004D1CA9B29942EADB30BD00002DE9F74FA1
:1032800082B089461446484609F036FD0746224A70
:10329000224B09F0ADFA054608F06CFF8146204943
:1032A000204609F027FF824609F026FD07461A4A04
:1032B0001A4B09F09DFA054608F05CFF04461948D0
:1032C000016802980AF0D6F8824609F015FD074613
:1032D000154A164B09F08CFA054608F04BFF029090
:1032E0002146484608F03AFA009009F005FD0546E7
:1032F0000F4A104B09F07CFA074600220E4B08F0EB
:103300006BFF824608F036FF0190DDE9011002F004
:103310002FFE05B0BDE8F08FD5CC5A0A48FB0F3F11
:10332000000080BFC4000020EC51B81E85EB713F47
:10333000D3DEE00B93A94C400080564000B5C3B0EB
:10334000002042900021419140913F913E913D915A
:103350003C913B913A913991389137913691359121
:10336000349133913291319130912F912E912D9151
:103370002C912B912A912991289127912691259181
:10338000249123912291219120911F911E911D91B1
:103390001C911B911A91FE48B0F864103E91B0F850
:1033A00066103D91B0F868103C91DDE93C213E98F3
:1033B00002F03CF9409040F26C71419129E04FF4E9
:1033C000C871419890FBF1F201FB120010B94FF463
:1033D000B77118E04198C217199000EB92708210F3
:1033E0001998A0EB820060B96421419890FBF1F23A
:1033F00001FB120010B14FF4B77104E040F26D11FF
:1034000001E040F26D113F9801443F914198401C0A
:1034100041903E9941988842D1DBDDE93F1001445B
:103420003F91DB484168389181683791C168369196
:10343000B0F86A103B91B0F86C103A91B0F86E1089
:103440003991399809F0F6FD35903A9809F069F903
:10345000CDE91601359809F04FFC0022CD4BCDE99E
:10346000120108F06DFFCDE91401DDE9162308F023
:10347000B3FECDE9180108F07DFE35903B9809F0C8
:1034800050F9CDE91401359809F036FC0022C14B02
:10349000CDE9100108F054FFCDE91201DDE9142354
:1034A00008F09AFE0022BC4BCDE9160108F048FF57
:1034B000CDE9180108F05EFE35903F98401C09F0F8
:1034C000B9FD3490B549369809F0B6FC0F9009F073
:1034D00013FCCDE91201359809F00EFC4FF0804243
:1034E000AF4BCDE90E0108F077FECDE91001DDE923
:1034F000122309F017FBCDE91601349809F0FCFB03
:10350000CDE91401DDE9162308F066FECDE91801C6
:1035100008F030FE3490A349349809F0ABFFA2497B
:10352000199009F089FC3390339809F0E5FB9F4A24
:103530009F4BCDE90E0109F05BF99E4A9E4BCDE908
:10354000100108F049FECDE91401339809F0D4FBCD
:10355000CDE91201DDE9142309F04AF9974A984BA5
:10356000CDE9160108F038FECDE9180108F002FE99
:1035700032904FF4B471329802F0F0FF32903398E9
:1035800009F0BAFB8F4A904BCDE90E0109F030F9F2
:103590008E4A894B373BCDE9100109F0B7FACDE9E6
:1035A0001401339809F0A8FBCDE91201DDE91423D9
:1035B00009F01EF9864A874BCDE9160108F00CFE8A
:1035C000CDE9180108F0D6FD3190339809F094FB4D
:1035D000814A824BCDE90E0109F00AF9804A814BFC
:1035E000CDE9100108F0F8FDCDE91401339809F098
:1035F00083FBCDE91201DDE9142309F0F9F87A4AD9
:103600007A4BCDE9160109F081FACDE9180108F0ED
:10361000B1FD30907648319909F06CFD75490A90FA
:1036200009F00AFC0B9009F067FB734A734BCDE974
:103630000C0109F0DDF8CDE90E0108F09BFD1090BA
:1036400008F004FC119009F057FB6D4A6D4BCDE971
:10365000120109F0CDF8CDE91601339809F04CFBC1
:10366000694A6A4BCDE9080109F0C2F8684A694B1A
:10367000CDE90A0109F04AFACDE90E014FF0804088
:10368000319909F037FD5B49049009F0D5FB0590AD
:1036900009F032FB584A594BCDE9060109F0A8F868
:1036A000CDE9080108F066FD0A9008F0CFFB0B9009
:1036B00009F022FBCDE90C01DDE90E2309F098F8B1
:1036C000CDE91201339809F017FB534A534BCDE96A
:1036D000020109F08DF8524A524BCDE9040108F07D
:1036E0007BFDCDE90801339809F006FBCDE9060121
:1036F000DDE9082309F07CF84B4A4C4BCDE90A017F
:1037000009F004FACDE90E013A49319809F094FB29
:10371000059009F0F1FA384A384BCDE9060109F075
:1037200067F8CDE9080108F025FD0A9008F08EFB46
:103730000B9009F0E1FACDE90C01DDE90E2309F067
:1037400057F8CDE91001DDE9122308F045FDCDE978
:103750001401DDE9162308F03FFDCDE9180108F05A
:1037600009FD2F902F99329809F0F2FA2E90339894
:1037700009F0C2FA2E4A2F4BCDE9140109F038F8AE
:103780002D4A2E4BCDE9160109F0C0F958E0000092
:103790008C09002000004E40000038400000C0416D
:1037A000D56C424164A1154A00AD0E47C0AB8A15E5
:1037B000DADE333F2F8672A21894E14046CEC29ED5
:1037C000768771400CDB60F25025243F2AC6F99BB6
:1037D000C91F0C3C7758764000D864FC6001813EDC
:1037E00003E35F521C0A063F80035D72111C913F88
:1037F00000004040000034434AD8124DFB210940EC
:103800002C616D8C9DF0323FE31A9FC9FE791A3FFF
:10381000958098840B79943FB75F3E59315CED3EBB
:10382000AEF36F97FDBA733FF6B2EDB435A2FE3F2B
:10383000068195438B389E40C3F5285C8F425F40DC
:10384000CDE9180108F096FC4290FE49429809F033
:10385000F3FA0B9009F050FAFB4AFC4BCDE90C014E
:1038600008F0C6FFCDE90E0108F084FC109008F0C6
:10387000EDFA119009F040FAF54AF64BCDE9120144
:1038800008F0B6FFCDE916012E9809F035FAF24A94
:10389000F24BCDE9120109F045F9CDE91401DDE95A
:1038A000162309F03FF9CDE9180108F063FC2D90CB
:1038B000339809F021FAEA4AEA4BCDE9000108F011
:1038C00097FFE94AE94BCDE9020109F01FF9CDE97B
:1038D0000601339809F010FACDE90401DDE9062369
:1038E00008F086FFE24AE34BCDE9080108F074FCDA
:1038F000CDE90C01339809F0FFF9CDE90A01DDE9C2
:103900000C2308F075FFDC4ADC4BCDE90E0109F011
:10391000FDF80022DA4BCDE9100108F011FD00227C
:10392000D84BCDE9120108F057FC0022D44BCDE969
:10393000140108F005FD0022D34BCDE9160108F073
:103940004BFCCDE9180108F015FC2C90BD494298BC
:1039500009F072FA0B9009F0CFF9BB4ABB4BCDE9E5
:103960000C0108F045FFCDE90E0108F003FC1090B2
:1039700008F022F8119009F0BFF9C44AC44BCDE910
:10398000120108F035FFCDE916012C9809F0B4F9C1
:10399000CDE91401DDE9162308F01EFCCDE918017C
:1039A00008F0E8FB2B90A7492D9809F045FA0990FB
:1039B00009F0A2F9A44AA54BCDE90A0108F018FFC5
:1039C000CDE90C0108F0D6FB0F9008F03FFA9D49B5
:1039D00011902B9809F030FA099009F08DF99A4A64
:1039E0009A4BCDE90A0108F003FFCDE90C0108F07C
:1039F000C1FB0F9008F02AFA1090119909F07AFB98
:103A0000129007F019FE139009F076F98E4A8F4B49
:103A1000CDE9140108F094FC00229E4BCDE916017B
:103A200008F0E6FECDE9180108F0A4FB2A904FF05B
:103A300080412B9809F000FA8249109009F0FCF9B6
:103A4000119009F059F9804A804BCDE9120108F034
:103A5000CFFECDE9140108F08DFB179008F0D0FAE5
:103A60004FF0804119902B9809F0E6F975491090B4
:103A700009F0E2F9119009F03FF9734A734BCDE96F
:103A8000120108F0B5FECDE9140108F073FB1790A0
:103A900008F0B6FA1890199909F02CFB2990694999
:103AA000319809F0C9F9079009F026F9664A674B81
:103AB000CDE9080108F09CFE00224FF08043CDE9DB
:103AC0000A0108F095FECDE90C0108F053FB0E90B9
:103AD00008F0BCF90F9009F00FF9CDE91201309808
:103AE00009F00AF9CDE90E01309809F005F9002234
:103AF000694BCDE90A0108F07BFECDE90C01DDE957
:103B00000E2308F075FECDE91001DDE9122308F05F
:103B10006FFECDE916014B49329809F08DF90390FB
:103B200009F0EAF8484A494BCDE9040108F060FE83
:103B300000225A4BCDE9060108F05AFECDE90801F2
:103B400008F018FB0A9008F081F90B9009F0D4F8FE
:103B5000CDE90E01299809F0CFF8CDE90A0129989D
:103B600009F0CAF800224E4BCDE9060108F040FEEC
:103B7000CDE90801DDE90A2308F03AFECDE90C01A0
:103B8000DDE90E2308F034FECDE912012D4932980B
:103B900009F052F9039009F0AFF82B4A2B4BCDE90D
:103BA000040108F025FE00224FF08043CDE9060114
:103BB00008F01EFECDE9080108F0DCFA0A9007F0D3
:103BC000FBFE20490C90319809F036F9039009F07A
:103BD00093F81D4A1D4BCDE9040108F009FECDE91B
:103BE000060108F0C7FA089008F030F90A904FF083
:103BF0008140309909F07EFA0890299909F07AFA03
:103C000009900A9909F076FA0B900C9909F072FA6A
:103C10000C490E90319809F00FF9039009F06CF8F7
:103C2000094A0A4BCDE9040108F0E2FDCDE906019D
:103C300008F0A0FA089008F009F90A904FF08040C7
:103C400030992FE0000034434AD8124DFB2109403F
:103C5000F94ECC7A3194733F1FBAA0BE654E773FC0
:103C6000D61A4AED45B45D3FBEA4315A4755433F8D
:103C7000B81E85EB51684740A69BC420B072354002
:103C800000004E4000003A4000003740F168E388F1
:103C9000B5F8643F008066400000F43F000010402B
:103CA0000000E03F09F026FA09900A9909F022FA8B
:103CB000FE490C90329809F0BFF8019009F01CF809
:103CC000FB4AFC4BCDE9020108F092FD00224FF0C7
:103CD0008043CDE9040108F08BFDCDE9060108F031
:103CE00049FA099008F0B2F80A90299909F002FA05
:103CF0000B900C9909F0BEFB0D900E9909F028F875
:103D00000F9008F0F9FFCDE91001DDE9122308F06A
:103D100009FFCDE91401DDE9162308F003FFCDE921
:103D2000180108F027FA4290429808F0E5FFE04AAF
:103D3000E04BCDE9120108F003FB0022DE4BCDE998
:103D4000140108F055FD0022DC4BCDE9160108F006
:103D50004FFDCDE9180108F00DFA2890D3492A98B3
:103D600009F06AF8079008F0C7FFD14AD14BCDE9B6
:103D7000080108F03DFDCDE90A0108F0FBF90D90BE
:103D800008F03EF9C9490F90379809F055F80790A7
:103D900008F0B2FFC64AC74BCDE9080108F028FD7C
:103DA000CDE90A0108F0E6F90D9008F029F90E9026
:103DB0000F9909F09FF9BD4911902A9809F03CF834
:103DC000059008F099FFBA4ABA4BCDE9060108F010
:103DD0000FFDCDE9080108F0CDF90B9007F0ECFDDF
:103DE000B2490D90379809F027F8059008F084FF44
:103DF000AF4AB04BCDE9060108F0FAFCCDE9080165
:103E000008F0B8F90B9007F0D7FD0C900D9909F068
:103E100071F90F90AA4807F0CFFD0E900F9909F0A5
:103E20000BF81090119909F025FB129007F076FB22
:103E3000139008F061FF9E4A9E4BCDE9140108F0F3
:103E40007FFA00229C4BCDE9160108F0D1FCCDE9A8
:103E5000180108F08FF927909A49369809F04AF925
:103E600018904FF08140389909F044F9964915901F
:103E700009F06EFA1690289909F0FCFA1790189933
:103E800008F066FF9149199008F0D6FF26904FF090
:103E90008141279809F02EF98C49189008F0CCFF41
:103EA0001990269909F054FA25904FF081412798EE
:103EB00009F020F98549189008F0BEFF199026995D
:103EC00008F046FF24907F48369909F013F91990BD
:103ED0004FF08140389909F00DF97C4917903598D9
:103EE00009F008F91590289908F032FF16901799F3
:103EF00008F02EFF1890199909F0BCFA23904FF49E
:103F0000B461239802F02AFB23900021239809F042
:103F1000BDF809D24FF08141239808F08DFF634925
:103F2000199009F0A7FA08E04FF08141239808F0B2
:103F300083FF5E49199009F09DFA22905B4922980F
:103F400008F07AFF079008F0D7FE594A594BCDE99F
:103F5000080108F04DFCCDE90A0108F00BF90D90BD
:103F600007F02AFD51490F902A9808F065FF059047
:103F700008F0C2FE4E4A4F4BCDE9060108F038FC6E
:103F8000CDE9080108F0F6F80B9007F015FD474958
:103F90000D90379808F050FF059008F0ADFE444AA8
:103FA000444BCDE9060108F023FCCDE9080108F0F7
:103FB000E1F80B9007F000FD0C900D9909F09AF8CC
:103FC0000E900F9909F096F8384911902A9808F048
:103FD00033FF079008F090FE354A364BCDE90801D3
:103FE00008F006FCCDE90A0108F0C4F80D9007F0CE
:103FF0002DFF2E490F90379808F01EFF079008F00C
:104000007BFE2B4A2B4BCDE9080108F0F1FBCDE9F3
:104010000A0108F0AFF80D9007F018FF0E900F9905
:1040200009F068F81090119908F092FE129007F0CC
:1040300075FA139008F060FE1D4A1E4BCDE914017D
:1040400008F07EF900221C4BCDE9160108F0D0FBE8
:10405000CDE9180108F08EF821901D48219909F04A
:1040600009FA20901149209808F0E6FE139008F014
:1040700043FE0F4A0F4BCDE9140108F0B9FBCDE91F
:10408000160108F077F8199007F0BAFF1F901F99F2
:10409000084609F02FF819901F9909F02BF81E9087
:1040A000DDE91E0109F026F8199013E00000344301
:1040B0004AD8124DFB2109400080664000001040A4
:1040C00041ECCA3F00007042000034440000B44498
:1040D0000000B4421F9909F00DF81D90FE49209888
:1040E00009F0D4F802D200200146B8E0FB4920983C
:1040F00009F0CCF845D21D9808F0FEFD02460B46AB
:10410000CDE91001F648F74908F01AF9CDE9140194
:104110001E9808F0F1FD02460B46CDE90C01F2486D
:10412000F24908F00DF9CDE91001F149209808F0A5
:1041300083FE059008F0E0FDEE4AEF4BCDE9060165
:1041400008F056FBCDE9080108F014F80A9007F0D2
:1041500057FF0B9008F0D0FD02460B46CDE90C014D
:10416000E648E74908F0ECF8CDE90E01DDE9102357
:1041700008F0D8FCCDE91201DDE9142308F02CF891
:104180006DE0209808F0B8FD4FF06632DD4BCDE9C8
:10419000140108F02BFC43D2209808F0ADFDDA4A58
:1041A000DA4BCDE9000108F023FBCF4A5242D84B4D
:1041B000CDE9020108F010F8CDE90601209808F0D9
:1041C0009BFDCDE90401DDE9062308F011FBD14A8E
:1041D000D14BCDE9080107F0FFFFCDE90C01209894
:1041E00008F08AFDCDE90A01DDE90C2308F000FBA7
:1041F000C84ACA4BCDE90E0107F0EEFFCDE9120126
:10420000209808F079FDCDE91001DDE9122308F0CE
:10421000EFFA0022C24BCDE9140107F0DDFF1EE0EA
:10422000B349209808F008FE0D9008F065FDB14AEA
:10423000B14BCDE90E0108F0DBFACDE9100107F032
:1042400099FF129007F0DCFE139008F055FD02462E
:104250000B46CDE91401B348B34908F071F80022C8
:10426000B24BCDE9160108F06BF8CDE9180107F063
:1042700081FF1C901C99209808F06AFD1B9000217A
:10428000229809F003F87CD29949219808F0D4FDCE
:10429000039008F031FD974A974BCDE9040108F0EF
:1042A000A7FACDE9060107F065FF099007F0CEFDFA
:1042B0008F490B90379808F0BFFD039008F01CFD64
:1042C0008C4A8D4BCDE9040108F092FACDE9060144
:1042D00007F050FF099007F06FFB0A900B9908F068
:1042E00009FF83490D902A9808F0A6FD039008F075
:1042F00003FD804A804BCDE9040108F079FACDE94D
:10430000060107F037FF099007F0A0FD78490B90F0
:10431000219808F091FD019008F0EEFC754A764B6B
:10432000CDE9020108F064FACDE9040107F022FFAB
:10433000079007F041FB6E490990379808F07CFD23
:10434000019008F0D9FC6B4A6B4BCDE9020108F0F3
:104350004FFACDE9040107F00DFF079007F076FD55
:104360000890099908F0C6FE0A900B9909F082F8A6
:104370000C900D9908F060FD0E9007F0CFF80F90AB
:1043800000E01DE008F0B8FC5A4A5B4BCDE9100193
:1043900007F0D6FF0022664BCDE9120108F028FA9B
:1043A0000022634BCDE9140107F016FFCDE9160199
:1043B00007F0E0FE4FF4B471199002F0CFF8C7E0B7
:1043C0004B49219808F038FD039008F095FC494AC4
:1043D000494BCDE9040108F00BFACDE9060107F0DD
:1043E000C9FE099007F032FD41490B90379808F05B
:1043F00023FD039008F080FC3E4A3F4BCDE90401C9
:1044000008F0F6F9CDE9060107F0B4FE099007F0CF
:10441000D3FA0A900B9908F06DFE35490D902A9851
:1044200008F00AFD039008F067FC324A324BCDE9F0
:10443000040108F0DDF9CDE9060107F09BFE0990C3
:1044400007F004FD2A490B90219808F0F5FC019033
:1044500008F052FC274A284BCDE9020108F0C8F9C0
:10446000CDE9040107F086FE079007F0A5FA204980
:104470000990379808F0E0FC019008F03DFC1D4AD7
:104480001D4BCDE9020108F0B3F9CDE9040107F0B5
:1044900071FE079007F0DAFC0890099908F02AFEEF
:1044A0000A900B9908F0E6FF0C900D9908F0C4FCF7
:1044B0000E9007F033F80F9008F01EFC0D4A0E4BDB
:1044C000CDE9100107F03CFF0022194BCDE91201A4
:1044D00008F08EF900222DE00000AA420000A04062
:1044E0003677F4BF5C8B163FEC51B81E85EBB13FBD
:1044F000000034434AD8124DFB210940CDCCCCCC2E
:10450000CC0C4D406666E2BF8D976E1283C0E63FCD
:104510007A9429C09A99999999D95940993180C02A
:10452000001C9B401283C0CAA1C534C00020AC400F
:1045300000806640214BCDE9140108F0E7FACDE98F
:10454000160107F017FE4FF4B471199002F006F847
:104550001A901B49259808F0CDFD1A49C1F8E401CD
:104560001749249808F0C6FD1649C1F8E8011A98C1
:10457000C1F8F0011B9808F0BFFB0022124BCDE9F7
:10458000180108F033FA04D810490E48C0F8EC11AD
:1045900012E01B9808F0B0FB00220D4BCDE918018A
:1045A00008F0EAF804D20B490648C0F8EC1103E021
:1045B00004491B98C1F8EC0143B000BD00E0804005
:1045C0000000C0418C090020004056400000B2426B
:1045D000004056C00000B2C270B52A4890F84C00A6
:1045E00000F0F000602805D1264890F84C0000F05B
:1045F0000F0018B124482549086070BD00202149EA
:1046000081F8B001486B4FF07E5108F0A1FB0446E1
:104610001C49B1F8420008F025FD0546214608F086
:1046200035FD08D21749486B4FF07E5108F090FBDA
:104630001449486520E01349886B4FF07E5108F01B
:1046400019FF04460F49B1F8420008F00BFD05467A
:10465000214608F01BFE08D20A49886B4FF07E51B4
:1046600008F008FF0749486506E00649B1F842002E
:1046700008F0F8FC034948650121024880F8B111AF
:1046800000BFBAE78C090020C55E00089800002032
:1046900001201749888200200860A1F844005A20B0
:1046A00088872D20A1F84200124848631248886389
:1046B0005A20C887A1F84000400708610F48886069
:1046C0000F4848604FF08240C8600E4848620E486C
:1046D0000862002088623C20C885122088854FF43B
:1046E000967048860E20088608488861704700004A
:1046F0008C09002000003442000007430000F04114
:104700000000F242CDCC8C409A99F93F0000404025
:1047100010B5022000F0A8F8002864D032480068E4
:1047200020F002003049086000212F480838FDF7CA
:10473000E6FF00212C480838FDF742FF022000F078
:1047400079F800202949087031E000212848274ADB
:10475000127840F822100020264908701EE02549F2
:10476000097801EB8101214A12781144224A32F87A
:10477000110008F077FC04461D481C4A127850F8D6
:104780002210204608F0E4FA1949184A127841F834
:10479000220018480078401C164908701548007817
:1047A0000A28DCDB11480078401C104908700F48CB
:1047B00000780528C9DB0E480068104908600C48DD
:1047C00040680F4908600A4880680E490860084838
:1047D000C0680D490860064800690C49086000215E
:1047E0000B4800F035F810BD0824014010010020EE
:1047F000D0490020110100206C4900201401002044
:10480000180100201C0100202401002020010020AC
:104810000800024010B504460021054800F018F8D1
:104820000348001D04600121001F00F011F810BDB5
:104830005804024000F0805111B10349086001E0C2
:104840000249486070470000040402400000024032
:1048500021B1026842F00102026004E002684FF6F2
:10486000FE731A400260704701460020002201F0EA
:10487000805313B1054B1A6801E0054B1A6802EA30
:1048800001030BB1012000E000207047000402404A
:10489000000002401AB103680B43036002E00368A2
:1048A0008B430360704710B50022026847F6F0732F
:1048B0009A430C6A8B6823430C6923434C69234356
:1048C0008C692343CC6923434C6A23438C6A23437A
:1048D0001A430260CB6843600B6883604B68C36017
:1048E00010BD0C2105E00C2100BF0A1EA1F1010141
:1048F000FBD1021EA0F10100F5D1704706E048216E
:1049000000BF0A1EA1F1010359B2FADA021EA0F19A
:10491000010358B2F3DA704710B51449D1F8CC014D
:10492000134908F0B3FB15D812480078401C114910
:10493000087008460078142817DB002008700B4820
:10494000D0F8F80120F0806000F180600749C1F8DC
:10495000F8010AE00020074908700448D0F8F8017F
:1049600020F080600149C1F8F80110BD8C090020D9
:1049700000007041C000002010B56C4890F8B301F1
:10498000012863D100206A4908806A480088401CD9
:104990006849088008460088052804DA6348D0F88A
:1049A000B8016549086063480088B0F5167F42DDAC
:1049B0000020604908805D48D0F8B8115E48006862
:1049C00008F058FD04464FF03F4108F05FFB09D264
:1049D0005648D0F8F80120F00200801C5349C1F875
:1049E000F80107E05148D0F8F80120F002004F49E3
:1049F000C1F8F8014D48D0F8B8114F48006808F0E8
:104A000039FD04464FF07E5108F040FC0BD3474877
:104A1000D0F8B8114848006808F02CFD0446474912
:104A200008F034FB08D24148D0F8F80120F020000B
:104A30003E49C1F8F80177E03C48D0F8F80120F091
:104A4000200020303949C1F8F8016DE0374890F86E
:104A5000B301022863D10020364908803448008819
:104A6000401C3349088008460088052804DA2F488E
:104A7000D0F8B801304908602D480088B0F5167F9D
:104A800052DD00202A4908802848D0F8B8112A4869
:104A9000006808F0EFFC04464FF07C5108F0F6FB8C
:104AA00009D22248D0F8F80120F00200801C1F49EA
:104AB000C1F8F80107E01D48D0F8F80120F0020025
:104AC0001A49C1F8F8011948D0F8B8111A48006815
:104AD00008F0D0FC04464FF07E5108F0D7FB0BD312
:104AE0001248D0F8B8111448006808F0C3FC044616
:104AF000124908F0CBFA08D20C48D0F8F80120F09F
:104B000020000A49C1F8F8010EE00848D0F8F80181
:104B100020F0200020300549C1F8F80104E0002011
:104B2000044908800249088010BD00008C0900205B
:104B3000BE000020BC000020B8000020000080BFA4
:104B400070B54D4890F8B201002864DD4A4A916979
:104B5000D2F8BC0108F09AFB0CD94748D0F8BC1138
:104B6000464808F0C7FA044643488169204608F0E1
:104B70008DFB1DD800204249087042480078401C37
:104B8000404908700846007807F0E2FD044600221C
:104B90003D4B07F02BFF0BD200203A4908703648F6
:104BA000D0F8F80120F00100401C3349C1F8F801A9
:104BB00031498869354908F09DFA04462E48D0F8F5
:104BC000BC11204608F062FB2AD82B49886930497D
:104BD00008F090FA04462848D0F8BC11204608F0A6
:104BE00055FA1DD826480078401C2549087008460B
:104BF0000078642814DD00200870224908701E48DF
:104C0000D0F8F80120F001001B49C1F8F80100209C
:104C10002049087004E000201949087019490870FB
:104C2000154890F8F80100F0010008B31A48008810
:104C3000401C1949088008460088B0F5966F1ADDB7
:104C40000020088013480078401C1249087008466C
:104C50000078082808DA0848D0F8F80120F00100A8
:104C60000549C1F8F80106E009200A49087002E088
:104C700000200949088070BD8C090020000080BF19
:104C8000B0000020B100002000002C406666663FA6
:104C9000666666BFB2000020B400002010B53A4935
:104CA000886B4FF0804108F053F804463648D0F83E
:104CB000B811204608F0EAF914D234480078401CB4
:104CC000324908700846007832285CDD34200870CC
:104CD0002D48D0F8F80120F0080008302A49C1F822
:104CE000F80150E02849486B4FF0804108F0C2FBC2
:104CF00004462548D0F8B811204608F0C7FA14D267
:104D000022480078401C2149087008460078322863
:104D100039DD342008701C48D0F8F80120F0040078
:104D2000001D1949C1F8F8012DE01749886B4FF0B3
:104D30007E5108F09FFB04461348D0F8B811204676
:104D400008F0A4FA1FD21049486B4FF07E5107F0CB
:104D5000FFFF04460C48D0F8B811204608F096F939
:104D600011D20020094908700748D0F8F80120F056
:104D700004000549C1F8F8010846D0F8F80120F010
:104D80000800C1F8F80110BD8C090020B600002011
:104D900006F0E2FA0149086070470000140401407F
:104DA000002123498279002A3AD00A461268036812
:104DB0009A430B461A600A1D126803689A430B1D3A
:104DC0001A60027911440A6803681A430A60184A93
:104DD0000832126803689A43154B08331A601A1D8B
:104DE000126803689A43124B0C331A604279102AF6
:104DF0000ED11A1F126803681A430D4B08331A604C
:104E00001A1D126803681A43094B0C331A600DE02F
:104E10000749427911440A6803681A430A6005E0A9
:104E2000027911440A6803689A430A6070470000D7
:104E30000004014010B500F0E1F8352000F01EF844
:104E400000240AE00B4901EBC42000F01DF800BF6C
:104E500000F05AF80128FBD0641C502CF2D306480D
:104E600000F012F800BF00F04FF80128FBD000F06E
:104E700065F810BD00A0020800F007080149C860ED
:104E8000704700000020024030B5044604254FF46E
:104E9000302000F0BFF80546042D17D10C480069FA
:104EA00040F002000A49086108464461006940F088
:104EB000400008614FF4302000F0ACF8054604488B
:104EC000006941F6FD71084001490861284630BD7E
:104ED0000020024004200B49C96801F0010109B11A
:104EE00001200EE00749C96801F0040109B1022060
:104EF00007E00449C96801F0100109B1032000E08E
:104F0000042070470020024004200B49C96801F0CA
:104F1000010109B101200EE00749C96801F004014F
:104F200009B1022007E00449C96801F0100109B184
:104F3000032000E00420704700200240034800697D
:104F400040F08000014908617047000000200240E5
:104F500070B504460D460426F00200F05BF80646E4
:104F6000042E11D10948006940F001000749086189
:104F70002580F00200F04EF806460448006941F62C
:104F8000FE71084001490861304670BD00200240B2
:104F900078B506460C46042500200090E80200F093
:104FA00039F80546042D24D11348006940F001006A
:104FB000114908613480E80200F02CF80546042D00
:104FC00010D1B01C0090200C00990880E80200F07D
:104FD00021F805460848006941F6FE710840064977
:104FE000086106E00448006941F6FE710840024984
:104FF0000861284678BD00000020024002480349AD
:10500000486003484860704723016745002002401C
:10501000AB89EFCD00B502460423FFF75BFF0346E3
:1050200003E0FFF757FF0346521E012B01D1002A70
:10503000F7D102B90523184600BD000010B500F0F5
:10504000D7FC4FF448400849A1F8AC0100F04CFBF4
:105050000549B1F8AC1108430349A1F8AC010A2194
:105060000148A0F8AE1110BD8C09002030B5002217
:105070008B071C0F0F2303FA04F20B4B8C1053F811
:1050800024309343084C8D1044F8253023468C106F
:1050900053F824308C07240F00FA04F42343024C05
:1050A0008D1044F8253030BD080001402DE9F04155
:1050B000024600250026002000230024002791F846
:1050C00003C00CF00F0591F803C00CF0100CBCF1FC
:1050D000000F03D091F802C04CEA050591F800C01A
:1050E000BCF1000F31D0146800202BE04FF0010C10
:1050F0000CFA00F3B1F800C00CEA03069E4220D17E
:1051000083004FF00F0C0CFA03F7BC4305FA03FCC5
:105110004CEA040491F803C0BCF1280F06D14FF00B
:10512000010C0CFA00FCC2F814C00AE091F803C0AC
:10513000BCF1480F05D14FF0010C0CFA00FCC2F88D
:1051400010C0401C0828D1D31460B1F800C0BCF1D5
:10515000FF0F34DD546800202EE000F1080C4FF002
:10516000010808FA0CF3B1F800C00CEA03069E42ED
:1051700021D183004FF00F0C0CFA03F7BC4305FA62
:1051800003FC4CEA040491F803C0BCF1280F05D1DC
:1051900000F1080C08FA0CF8C2F8148091F803C06A
:1051A000BCF1480F07D100F1080C4FF0010808FAD4
:1051B0000CF8C2F81080401C0828CED35460BDE81B
:1051C000F0810000F0B50A460023002400210025EC
:1051D00000F00046B6F1004F02D11D4EF16901E02A
:1051E0001B4E7168C0F3034583B200F44016B6F558
:1051F000401F08D121F07061154E766826F0706668
:10520000134F7E6012E000F48016B6F5801F06D1C1
:10521000032606FA05F4A14341F0706106E0460D4D
:10522000360103FA06F6B14341F0706122B1460D32
:10523000360103FA06F6314300F00046B6F1004F9E
:1052400002D1034EF16101E0014E7160F0BD00003A
:10525000000001400246002093680B400BB1012082
:1052600000E0002070474161704701617047000015
:10527000004870475C4200202DE9F84F83460F46F6
:105280000024002500266946232004F0E3FF9DF852
:10529000000004436946222004F0DCFF200204B22F
:1052A0009DF80000044369462B2004F0D3FF9DF8CD
:1052B0000000054369462A2004F0CCFF280205B20D
:1052C0009DF80000054369462D2004F0C3FF9DF8BA
:1052D0000000064369462C2004F0BCFF300206B2F1
:1052E0009DF8000006436946182004F0B3FF9DF8BE
:1052F0000000382813D1304607F09CFE804628462F
:1053000007F098FE8146204607F094FE824642460A
:105310004946FDF7B3FF38600020BDE8F88F4FF035
:10532000FF30FAE72DE9F04F91B04FF0000AB54990
:10533000D1F8EC0107F0E0FC0446B34AB34B07F0A8
:1053400055FB7DD8AF49D1F8F001B14908F092F88A
:10535000B0490E9007F070FD834607F0CDFC06467D
:10536000AD4AAE4B07F044FA044606F003FF81460F
:1053700006F022FB8046A349D1F8EC01A54907F0CD
:105380005BFD834607F0B8FC0646A34AA34B07F033
:105390002FFA044606F0EEFE814606F031FE414645
:1053A0000F9006F0DBF98246504607F0A5FC8046D8
:1053B000994A9A4B06F0C4FF06460022984B07F024
:1053C00017FA044606F0D6FE82468E49D1F8F0015F
:1053D00007F092FC04460022914B07F0CDF97DD8EE
:1053E0008848816A504607F051FF79D28D4950466E
:1053F00007F04CFF74D28348816A504608F03AF8AF
:1054000084490E9007F018FD0F9007F075FC0646D2
:10541000814A824B07F0ECF9044606F0ABFE834666
:1054200006F014FD81467748416A484607F062FE5F
:1054300080467448016A404607F028FF05D800E01E
:10544000DBE0504611B0BDE8F08F6E48816A5046EF
:1054500008F010F86F49029007F0EEFC039007F097
:105460004BFC6D4A6D4BCDE9040107F0C1F9CDE964
:10547000060106F07FFE089006F0E8FC83466148CE
:10548000416A584607F036FE09905E48016A09985D
:1054900007F0D2FC0A9006F0CFF80B9007F02CFC36
:1054A0005D4A5E4BCDE90C0106F04AFF064600223C
:1054B0005B4B07F09DF904460D465549504607F0F1
:1054C00047FC064607F018FC22462B46CDE90E01A4
:1054D00007F028FB804606F04DFEB3E705E0FFE746
:1054E0004849888F07F0BEFDACE74648816A4948C5
:1054F00007F02EFC0446514607F0C8FE78D24A4910
:10550000504607F0C3FD73D23E4A516A106A07F055
:1055100093FC51460F903F4807F0ACFF0D9039487F
:10552000816A0D9807F014FC83463A4907F084FC21
:105530000E9007F0E1FB0646374A384B07F058F962
:10554000044606F017FE814606F080FC80460F995F
:1055500007F09CFE01D8504674E72A48816A5046FD
:1055600007F088FF2B49019007F066FC834607F09F
:10557000C3FB294A294BCDE9020107F039F9CDE9EE
:10558000040106F0F7FD814606F060FC07901D4817
:10559000416A079807F0AEFD08901A48016A08981A
:1055A00007F04AFC804606F047F8099007F0A4FB94
:1055B000194A1A4BCDE90A0106F0C2FE064600223E
:1055C000174B07F015F904460D461149504607F0F0
:1055D00051FF064607F090FB22462B46CDE90C0111
:1055E00006F0FAFDCDE90E0106F0C4FD2AE7FFE75B
:1055F0000449888F07F036FD24E70249888F07F0B9
:1056000031FD1FE78C0900209A9999999999B93F22
:105610000000B442000034434AD8124DFB21094037
:10562000008066400000404000003143F0B5034672
:10563000144620466FF00105DE1703EB9676B61090
:10564000A3EB86062EB9642693FBF6F706FB173606
:1056500036B94FF4C87693FBF6F706FB17360EB94A
:105660004FF0FF35032906DA012901D1002200E0BD
:105670001F2210441BE007290BDC0A4601EBD276FF
:1056800077104E1EC6EB061607EB46062E44304436
:105690000DE005F1D606A1F10807C7EB071706EBE9
:1056A0004707CA1F02EBD27607EB66063044F0BD0F
:1056B00070B507490748006807F01CFD0546064914
:1056C00007F018FD0446054907F0B6FB70BD000061
:1056D000333353401C010020BE9F4E410000204741
:1056E000004870472444002010B500244FF4007196
:1056F0000A48FFF7AFFD04436006040E4FF48071C3
:105700000648FFF7A7FD04436006040E8021034806
:10571000FFF7A0FD0443204610BD00000018014023
:1057200070B509490948006807F0E4FC06464FF0E7
:105730008B4107F081FB0546054907F09BFE0446B7
:10574000044907F079FB70BD0000044214010020F9
:1057500000002543000030410146C1EBC100024A70
:1057600002EB8000007E7047884400200146C1EBB8
:10577000C100024A02EB8000807E7047884400200E
:1057800070B509490948006807F0B4FC06464FF0B7
:105790008B4107F051FB0546054907F06BFE0446B7
:1057A000044907F049FB70BD0000044224010020B9
:1057B000000025430000304170B5094909480068E0
:1057C00007F098FC06464FF08B4107F035FB054685
:1057D000054907F04FFE0446044907F02DFB70BD54
:1057E0000000044220010020000025430000304159
:1057F000F8B5044600266B46002292210F4800F0BF
:1058000005FA0646BEB99DF80150BDF80000000239
:1058100000B20090BDF8000000F47F4000B200909C
:10582000BDF9000028430090BDF90000C11700EB4E
:105830001161091221803046F8BD0000E4490020C2
:105840002DE9FC4705460E4617469846DDE90A9ABB
:1058500000240020009001904FF480716348FFF70E
:1058600002FD4FF400716148FFF7FFFC80215F48A3
:10587000FFF7F9FC0A20FFF734F800BF5BE04FF4B4
:1058800080715A48FFF7F1FC0A20FFF72AF8182C1C
:1058900018DA40215548FFF7DDFC012841D12046A8
:1058A000E11704EB5171C910A4EBC1020121914031
:1058B0006A4602EBE402127811436A4602EBE40204
:1058C00011702EE01C2C10DA40214848FFF7C2FC72
:1058D000012826D19DF80300A4F1180101228A4075
:1058E0001043C0B28DF803001BE0342C19DA4021BC
:1058F0003E48FFF7AFFC012813D1201DC11700EB74
:105900005171C910A0EBC102012191406B46221DCB
:1059100003EBE20212781143CAB2211D03EBE1014D
:105920000A704FF480713148FFF79DFC0A20FEF7A2
:10593000D8FF601CC4B2342CA1DB4FF400712B489B
:10594000FFF791FC9DF8000000F00F009DF800109B
:10595000C1F3021101EB810100EB410028809DF8A9
:10596000010000F00F009DF80110C1F3021101EBDE
:10597000810100EB410030809DF8020000F00F0033
:105980009DF80210C1F3011101EB810100EB410010
:1059900038809DF8040000F00F009DF80410C1F35A
:1059A000011101EB810100EB4100A8F800009DF816
:1059B000050000F00F009DF80510C1F3001101EB88
:1059C000810100EB4100A9F800009DF8060000F0FD
:1059D0000F009DF80610090901EB810100EB410061
:1059E00000F2DA70AAF80000BDE8FC870010014060
:1059F00008B50121402003F07DF98020ADF80000BA
:105A000004208DF8030002208DF8020069460A4840
:105A1000FFF74CFB4FF48070ADF800006946064874
:105A2000FFF744FB4FF40070ADF8000069460248F0
:105A3000FFF73CFB08BD00000018014018B9054AFB
:105A400012880A8004E0012802D10A88014B1A80DA
:105A500070470000C2000020174818490860184825
:105A60004860184888601848C86018480861184895
:105A70004861184888611848C86118480862486237
:105A8000174888621748C862174808631748486370
:105A9000174888631748C863104808641648486464
:105AA0000E488864C8641548086515484865154857
:105AB000C8650A48086670475D8E000824440020C7
:105AC000678E0008818E0008B1980008A59700082D
:105AD000B996000811A10008C99A00083D5A0008AB
:105AE0008D9D0008B59C0008959B0008F59B00085B
:105AF000559C0008219D0008FD920008EDA10008BA
:105B00000DA20008798F000870B504460025A18A0F
:105B10002069FFF7A8FB21896068FFF7A6FB012039
:105B2000FEF7ECFEA18A2069FFF79FFB0320FEF73A
:105B3000E5FE21896068FFF78DFB012800D1012572
:105B4000A18A2069FFF78FFB0120FEF7D7FE2846C8
:105B500070BD70B504460D46A18A2069FFF783FB2E
:105B60000120FEF7CBFE21896068FFF77EFB002055
:105B70002870072620E0A18A2069FFF774FB012026
:105B8000FEF7BCFEA18A2069FFF76FFB0320FEF73A
:105B9000B5FE21896068FFF75DFB012803D12978F4
:105BA000B04001432970A18A2069FFF75CFB022005
:105BB000FEF7A4FE701E46B2002EDCDA70BD38B5CA
:105BC00004460121206803F095F80121E06803F004
:105BD00091F82089ADF8000014208DF8030003200F
:105BE0008DF8020069466068FFF760FA21896068F5
:105BF000FFF73BFBA08AADF8000069462069FFF77C
:105C000055FAA18A2069FFF730FB38BD2DE9F8432A
:105C100080460E4617461C4600250020208006F0D0
:105C2000FE06404600F0ADF83146404600F03EF832
:105C30004046FFF769FF00B16D1E3946404600F04F
:105C400035F84046FFF760FF00B16D1E46F00106D3
:105C5000404600F096F83146404600F027F84046AE
:105C6000FFF752FF00B16D1E69464046FFF771FF16
:105C700020889DF8001008432080404600F049F835
:105C800069464046FFF765FF20889DF800104FF4F5
:105C90007F4202EA012108432080404600F055F887
:105CA000404600F086F82846BDE8F8832DE9F0412B
:105CB00004460E460127072527E0A18A2069FFF741
:105CC000D2FA0120FEF71AFE46FA05F000F00100B4
:105CD00020B121896068FFF7C8FA03E02189606874
:105CE000FFF7C1FA0120FEF709FEA18A2069FFF73C
:105CF000BCFA0520FEF702FEA18A2069FFF7B3FA7D
:105D00000120FEF7FBFD681E45B2002DD5DABDE887
:105D1000F08110B50446A18A2069FFF7A4FA218911
:105D20006068FFF7A0FA0120FEF7E8FDA18A20696C
:105D3000FFF79BFA0520FEF7E1FDA18A2069FFF736
:105D400092FA0120FEF7DAFD10BD10B50446A18AD3
:105D50002069FFF788FA21896068FFF786FA012039
:105D6000FEF7CCFDA18A2069FFF77FFA0520FEF738
:105D7000C5FDA18A2069FFF776FA0120FEF7BEFD76
:105D800010BD10B5044621896068FFF76EFA022045
:105D9000FEF7B4FDA18A2069FFF767FA0220FEF73B
:105DA000ADFD21896068FFF75EFA0220FEF7A6FDCF
:105DB00010BD10B50446A18A2069FFF754FA0120EE
:105DC000FEF79CFD21896068FFF74DFA0120FEF780
:105DD00095FDA18A2069FFF748FA0220FEF78EFDA3
:105DE00021896068FFF741FA0120FEF787FD10BDA9
:105DF0002DE9F04180460D4616461F46002405F069
:105E0000FE054046FFF7BDFF29464046FFF74EFF1F
:105E10004046FFF779FE00B1641E31464046FFF769
:105E200045FF4046FFF770FE00B1641E394640460C
:105E3000FFF73CFF4046FFF767FE00B1641E404697
:105E4000FFF7B7FF2046BDE8F08110B5012002F052
:105E5000E9FF00BF612002F0C7FF0028FAD045F239
:105E6000555000F029F8042000F01AF84FF47A6039
:105E700000F01CF800F00CF800F002F810BD000073
:105E80004CF6CC40014908607047000000300040EB
:105E90004AF6AA200149086070470000003000401F
:105EA00001494860704700000030004001498860A7
:105EB0007047000000300040014908607047000052
:105EC000003000400021234880F8B111C06CFF2849
:105ED00002D12048C1643CE01E4890F84C0000F01C
:105EE000F000202803D11C481C49086031E0194803
:105EF00090F84C0000F0F000102803D11848174922
:105F0000086026E0134890F84C0000F0F0004028AC
:105F100003D11448114908601BE00E4890F84C006A
:105F200000F0F000802803D10F480C49086010E011
:105F3000084890F84C0000F0F000602803D10B48AE
:105F40000649086005E000210248C164D0F8F41158
:105F5000416570478C090020C12B00089800002083
:105F6000D5640008896400086D290008D945000837
:105F70002DE9FE4F05460C46DFF8D491DFF8D4A199
:105F8000DFF8D4B14946284607F0B4F8074673480D
:105F90000168484607F0AEF88046714801684046FF
:105FA00007F0D6F90646394606F0D2FE6D4908607C
:105FB0006A4800686C4908606C4801686C4807F0E2
:105FC00099F802906B480168484607F093F80190F1
:105FD00069480168484607F08DF8009067480168F5
:105FE000009807F0B5F98046019907F043FA074693
:105FF000029906F0ADFE0646514606F0A9FE60493C
:1060000008605A480168484607F074F8064659483F
:106010000168304607F09CF95A4908605348016806
:10602000484607F067F8064653480168304607F0CF
:106030008FF95549086051464C48006806F088FEC3
:106040005249086059464E48006806F081FE0646EF
:1060500031464B48006806F0EFFE4D49086059464E
:106060004748006806F074FE064631464648006818
:1060700006F0E2FE474908603A480168204607F00A
:10608000F9F9074642480168384607F033F80646F2
:1060900034480168304606F05BFE314908603148FB
:1060A0000168204607F0E6F907463A480168384695
:1060B00007F020F806462C480168304606F048FEF6
:1060C00026490860324801684FF07E5007F0D2F947
:1060D00006462B480168304607F00CF8274908604F
:1060E0002B4801684FF07E5007F0C4F9064625485A
:1060F0000168304606F0FEFF1E4908602548016829
:10610000254806F0F7FF07461D480168384606F0A7
:10611000F1FF06461C480168304606F019FE164994
:1061200008601C4801681C4806F0E4FF0746154853
:106130000168384606F0DEFF06461448016830461E
:1061400006F006FE0949086005480068BDE8FE8FB4
:106150000AD7A33C0AD7233C00002041D4000020EA
:10616000D0000020C8000020CC000020F400002057
:1061700017B7D139EC000020F0000020E800002023
:10618000D8000020DC000020E0000020E400002017
:10619000F8000020FC000020000080BF10B5094876
:1061A000007838B901200749087002210648FFF736
:1061B0005AF806E000200349087002210248FFF760
:1061C00054F810BD060100200018014008B5012157
:1061D000402002F08FFD0220ADF8000010208DF865
:1061E000030002208DF8020069460448FEF75EFFB6
:1061F00002210248FFF739F808BD000000180140ED
:1062000010B502210148FFF730F810BD0018014019
:1062100010B502210148FFF726F810BD0018014013
:10622000F8B569460F2004F015F80EE069460F2016
:1062300004F010F89DF80000692800D106E0002461
:1062400001E0601CC4B2322CFBDBEFE700BF002191
:10625000112004F0EFFF7021102004F0EBFF01216A
:10626000122004F0E7FF11E00020009069461220A0
:1062700003F0F0FF9DF8000000F0010000B906E017
:10628000002401E0601CC4B2322CFBDBECE700BF51
:106290000021012004F0CEFF20210B2004F0CAFFD2
:1062A00000210D2004F0C6FF00210E2004F0C2FFE3
:1062B0004321102004F0BEFF4221112004F0BAFF58
:1062C0007421122004F0B6FF8C21132004F0B2FFD9
:1062D0000021142004F0AEFF0021152004F0AAFFD5
:1062E0000021162004F0A6FFC421172004F0A2FF0D
:1062F0001021582004F09EFF3821182004F09AFF46
:106300003821192004F096FF002400203C49086041
:1063100037E00020009069461E2003F09BFF9DF8A7
:10632000000000F0020002281DD10025694623204C
:1063300003F090FF9DF8000005436946222003F01A
:1063400089FF280205B29DF800000543284606F0A3
:1063500071FE06462A480168304606F0F9FC2849D5
:106360000860601CC4B2052C0BDD204606F07AFEE6
:10637000064631462248006806F05EFD2049086066
:1063800000E0C6E700BF002437E000200090694627
:106390001E2003F05FFF9DF8000000F002000228BD
:1063A0001DD100256946232003F054FF9DF800000D
:1063B00005436946222003F04DFF280205B29DF8EF
:1063C00000000543284606F035FE06460C480168E5
:1063D000304606F0BDFC0A490860601CC4B21E2CA1
:1063E0000BDD601C06F026FE0646314604480068B8
:1063F00006F022FD0249086000E0C6E700BFF8BDD4
:10640000C400002008B5002400BFFFF7DFFE24E031
:10641000601CC4B21148006D28B9062C16DD00249A
:10642000FFF7BCFE12E00D48006D012802D1FFF716
:10643000EFFE0BE00948006D022805D1022C05DBB8
:106440000024FFF7ABFE01E0FFF7DAFEFFF720FDC7
:106450006A4600210A2001F0F7F9D9E78C090020EB
:1064600010B54FF400410248FEF7FFFE10BD0000DA
:106470000008014010B54FF400410248FEF7F3FE5A
:1064800010BD0000000801400E4890F84C0000F0DC
:10649000F000402805D10B4890F84C0000F00F00A8
:1064A00018B109480949086070470020054981F87A
:1064B000B001074903484165012180F8B11100BFCF
:1064C000F2E700008C090020C55E0008980000205B
:1064D0000000B44210B51E4890F84C0000F0F000E7
:1064E000102803D01B481C49086010BD0020184923
:1064F00081F8B001084690F84C0018280CD1012111
:10650000134880F8B1110146486B4FF0804106F006
:106510001FFC0F49486518E00D4890F84C001428FE
:106520000CD101210A4880F8B1110146886B4FF067
:10653000804106F09FFF0649486506E000210448B7
:1065400080F8B111D0F8F411416500BFCDE700002B
:106550008C090020C55E0008980000202DE9F04F4E
:1065600089B082460C464FF0000BD94600215046B8
:1065700006F08CFE2FD8504606F0BEFB074605F00D
:1065800063FC054606F070F88146504606F0B4FB01
:10659000CDE9000105F058FC05460E46504606F0D0
:1065A000ABFB07462A46334606F0BCFACDE90401A8
:1065B00099FBF4F004FB1095284606F0B2F8CDE9FB
:1065C0000201DDE9042305F007FECDE9060105F02F
:1065D000D1FD834656E02AF0004B584606F08CFB6E
:1065E000074605F031FC054606F03EF8814699FB6A
:1065F000F4F004FB1099584606F07EFBCDE900014B
:1066000005F022FCCDE90201584606F075FB07466D
:10661000DDE9022306F086FA05460E46484606F0F6
:1066200080F82A463346CDE9040105F0D5FD002265
:106630001346CDE9060105F0DBFF02D14FF0000B58
:1066400020E0204606F0F6FC06463146584606F0A5
:10665000F3FB054606F0B2FC00F10109504606F0D6
:106660004BFB21F00048074609FB04F006F059F8FF
:106670003A464346CDE9060106F054FA054605F0D0
:1066800079FD8346584609B0BDE8F08F08B5002073
:1066900000F06EF802F080FA5CE02F4A2F490020EB
:1066A00000F08CF800283AD12B4800782C49898AD0
:1066B000884202D028480078D0B9002029490880B3
:1066C00029490880254802882849234802F054F8BF
:1066D0002549088008460088002836DD1E480078D5
:1066E00098B3224A08460188002000F0BFF82CE049
:1066F0001C4801880088401C1A4A108047F230501C
:10670000814222DBFFF7ACFE6A460021642001F0E3
:106710009BF8FFF7AFFE00201249088015E01148F2
:1067200001880088401C0F4A108047F23050814297
:106730000BDBFFF795FE6A460021642001F084F828
:10674000FFF798FE0020074908806A4600210120D3
:1067500001F07AF8A1E70000304100208400002019
:106760008C090020860000208200002004400020C8
:1067700010B5044614B1012C14D109E004F054FA08
:106780000A480B4908600B480968C1F860020AE032
:1067900004F04AFA08480649486006484968C1F8C2
:1067A000600200E000BF00BF10BD0000A444002054
:1067B0000801002015480008084700202DE9F04195
:1067C00004460E469046284850F824000079AB282D
:1067D00042D1254850F824004179234850F824003C
:1067E0004079401C204A52F824205071062938DB99
:1067F00056201D4951F82410087100201A4951F8FB
:1068000024104871184850F8240000883080002077
:10681000154951F8241008803188134A52F8242071
:10682000901DFCF70BFD0746DFB900250EE00E4872
:1068300050F82400801D405D08F80500FF210A483B
:1068400050F82400801D4155681C85B23088A8424C
:10685000EDDC0020BDE8F0810020034951F8241050
:1068600048714FF0FF30F5E7080100202DE9F041B5
:1068700005460E469046002406E000BF00BF00BF5C
:1068800000BF00BF601C84B24CF250308442F4DB85
:10689000002406E000BF00BF00BF00BF00BF601CB7
:1068A00084B24CF250308442F4DB002409E018F842
:1068B0000410154850F8250000F599700155601C2A
:1068C00084B2B442F3DB104951F8251001F59970F8
:1068D0003146FCF7B3FC07460B4850F8250000F59D
:1068E000997087553A0A084850F8250000F59970C4
:1068F000711C4254B21C90B2034A52F82520D2F8BF
:1069000060128847BDE8F0810801002010B504F04E
:1069100079F9002411E00221204600F013F900204B
:10692000C4EBC401064A02EB81010876C4EBC40142
:1069300002EB81018876601CC4B2012CEBDB10BD38
:106940008844002008B5002400BF00F09BF9EFE068
:10695000784890F8B10100287ED0764890F8F80188
:10696000C0F34010002877D1724890F8F801C0F3C6
:1069700000100028F7D16F4890F8F80100F00100EE
:106980000028F0D16B4890F8F801C0F340000028CF
:10699000E9D16848D0F8F801C0F340700028E2D18E
:1069A0006448D0F8F801C0F380600028DBD161486A
:1069B00090F8B001012807D15E4908694FF0804185
:1069C00006F03AFA044600E000245B48007820B163
:1069D000012854D002287CD16CE0564AD2F8B81174
:1069E000506D06F047FD064652480169304606F0F4
:1069F0004DFC12D202214F4880F8B4114F48017863
:106A00000078401C4D4A1070C82937DD02204A49E1
:106A1000087000201146087030E046480169484877
:106A200006F068FB0646434AD2F8B811506D06F0EE
:106A300021FD0746314606F029FB14D201213D48CD
:106A400080F8B4113D4801780078401C3B4A107032
:106A5000C82913DD012000E050E03749087000200C
:106A6000114608700AE0FFF751FF00203249087014
:106A70003249087000212F4880F8B4113DE02D4ABA
:106A8000D2F8B811506D06F0F5FC0646214606F026
:106A9000FDFB05D9274890F8F801C0F3800028B124
:106AA000FFF734FF00202449087002E0002000F0C6
:106AB00001F922E01F4A516DD2F8B80106F0DAFC64
:106AC0000646214606F0E2FB07D91A4890F8F8017D
:106AD00000E00CE0C0F3C00028B1FFF717FF002072
:106AE0001549087002E0002000F00AF905E0FFF700
:106AF0000DFF00201049087000BF08E0FFF706FFF7
:106B000000200D49087000210A4880F8B4110020C7
:106B1000FEF72CFE074981F8B2010020FEF71CFEAB
:106B2000044981F8B3016A460021012000F08CFE7F
:106B30000EE700008C09002088000020890000205A
:106B4000000080BF70B504460D46012D0DD1C4EB89
:106B5000C4020D4B03EB82021189C4EBC40203EBA8
:106B600082025068FEF781FB0CE0C4EBC402064BC6
:106B700003EB82021189C4EBC40203EB820250686A
:106B8000FEF771FB70BD00008844002070B504461C
:106B90000D46012D1FD12148B0F8440068B9C4EB5F
:106BA000C4021F4B03EB8202918AC4EBC40203EBC5
:106BB00082021069FEF759FB2EE0C4EBC402184BA9
:106BC00003EB8202918AC4EBC40203EB82021069D8
:106BD000FEF749FB20E0022D1ED11048B0F844001A
:106BE00068B9C4EBC4020E4B03EB8202918AC4EB7A
:106BF000C40203EB82021069FEF735FB0CE0C4EB24
:106C0000C402074B03EB8202918AC4EBC40203EB7C
:106C100082021069FEF729FB70BD00008C0900207C
:106C20008844002008B50121202002F063F84FF4C9
:106C30004040ADF8000010208DF8030003208DF8CF
:106C4000020069460D48FEF731FA4FF400410B4847
:106C5000FEF709FB09480A4948604FF400400881E3
:106C600020200860054808614FF480408882202079
:106C7000C86000200876887608BD00000014014036
:106C80008844002010B5FFF7CDFF03F0B3FD10BD21
:106C900008B500BF0CE0FDF753FFFDF7FFFFFDF760
:106CA0006BFEFDF739FE6A460021052000F0CCFDA1
:106CB000F1E7000010B50446012C1CDC0E480078FA
:106CC000A04207D1C4EBC4000C4901EB8000007E58
:106CD000012810D0FFF71AFE0120C4EBC401074AB7
:106CE00002EB810108760448047001210078FFF767
:106CF0004DFF03F075FF10BD000100208844002007
:106D000010B50446012C1CDC0E480078A04207D1C7
:106D1000C4EBC4000C4901EB8000007E022810D0B7
:106D2000FFF7F4FD0220C4EBC401074A02EB810126
:106D300008760448047002210078FFF727FF03F06B
:106D40004FFF10BD000100208844002008B54FF41B
:106D5000A06000F065F81D208DF8000000208DF87F
:106D6000010001208DF802008DF80300684600F054
:106D70001FF80B208DF8000000208DF80100022084
:106D80008DF8020001208DF80300684600F010F82D
:106D900034208DF8000001208DF8010000208DF8CE
:106DA000020001208DF80300684600F001F808BDDC
:106DB00070B5002100230F22C47804B3154C246859
:106DC00004F4E064C4F5E064210AC1F10403CA409C
:106DD000447804FA03F184781440214309010E4CED
:106DE0000678A155047804F01F050124AC4005780D
:106DF0006D11AD0005F1E025C5F8004109E004780A
:106E000004F01F050124AC40044D0678761145F8C6
:106E1000264070BD0CED00E000E400E080E100E001
:106E200002490143024A1160704700000000FA0560
:106E30000CED00E07047000010B50348006810B189
:106E400001480068804710BD1000002070B504465E
:106E500000F082F800202B4908702B4908702B495C
:106E600008702B4908602B4908602B4908702B4992
:106E700008702B4908702B4908602B4908602B4982
:106E800008602B48006858B12A48056845B1284871
:106E9000066803E0761E002028602D1D002EF9D123
:106EA00000202549086025490860254908602549D2
:106EB000086025490860254908602549086025497A
:106EC000087000F0FBFE00F029FF204600F0C8FF2C
:106ED000208800B170BD204600F0E0FF208800B19E
:106EE000F8E7204600F07EFD208800B1F2E720465A
:106EF00001F0B2FA208800B1ECE7FFF79BFF00BF7A
:106F0000E8E70000240000202C0000203C000020C6
:106F1000580000205C0000202D0000202E000020E2
:106F20002F00002030000020340000203800002016
:106F300070D600086CD6000804000020080000206D
:106F40000C00002010000020140000201800002079
:106F50001C00002046000020064800680649096819
:106F600000EB8100054908600846006820F0070032
:106F7000086070476CD6000870D6000860000020DA
:106F800010B500242C480078012800D010BD00BFA7
:106F9000FBF740F9044600BF2848007828B900BF35
:106FA0002046FBF73BF900BFF0E724480078401E7D
:106FB0002249087008460078002805DD00BF2046F9
:106FC000FBF72CF900BFE1E71D480078002805DD3C
:106FD00000BF2046FBF722F900BFD7E700F05AFEBA
:106FE000184908700846007800EB4000164951F82F
:106FF000200016490860084600681549096888425B
:1070000005D100BF2046FBF709F900BFBEE70F48D6
:107010000068406C401C0D49096848640D480068D0
:10702000401C0C490860FBF78DF900BF2046FBF7B8
:10703000F5F800BF00BFA9E72C00002024000020C5
:107040003C0000202E000020A40700205C0000204F
:10705000580000204000002010B500241E48007891
:10706000002800DD10BD1D480078002800DDF9E78C
:1070700000BFFBF7CFF8044600BF00F00BFE184935
:1070800008700846007800EB4000164951F82000CF
:10709000154908600846006814490968884205D106
:1070A00000BF2046FBF7BAF800BFDBE70E480068D8
:1070B000406C401C0C49096848640D480068401C3D
:1070C0000B490860FBF739F900BF2046FBF7A6F82B
:1070D00000BF00BFC6E70000240000203C000020E5
:1070E0002E000020A40700205C0000205800002093
:1070F0004000002070B5044600251A48007800289A
:1071000003DD46F66250208070BD174800780128E4
:1071100003D045F689602080F6E714480078FA2805
:1071200003DB45F209202080EEE700BF00BFFBF73C
:1071300071F8054600BFFCF737F800BF0B48007830
:10714000401C0A49087000F07DFE00BFFCF746F8BD
:1071500000BF2846FBF762F800BF00BF0020208078
:1071600000BFD1E7240000202C0000203C000020BC
:1071700010B5044612480078E8B900F08BFD1149BB
:10718000087008460078104908700E48007800EB37
:1071900040000E4951F820000D490860084600687B
:1071A0000C490860012006490870FBF7B5F843F662
:1071B0009920208002E045F68A60208010BD000002
:1071C0002C0000202E0000202D000020A40700200D
:1071D0005C000020580000202DE9FF4F85B00446D8
:1071E0009346DDE91985159F139E002002905648AD
:1071F0000078002805DD47F24A10288009B0BDE874
:10720000F08F1CB947F2AD102880F7E7BBF1000FF3
:1072100003D147F24F102880F0E71EB946F62F60E1
:107220002880EBE749480068874203D246F6306081
:107230002880E3E71498B84203D346F631602880EB
:10724000DCE71298202803D346F273202880D5E784
:1072500012981F2806D13E48844203D046F273207C
:107260002880CBE7204600F025FE0020288008F08B
:10727000010088B108F0020070B1B246002004900D
:1072800007E00020CAF800000AF1040A0498401C34
:1072900004900498B842F4D3149806EB800003904D
:1072A000CDE9007832465846039B089900F022FA4F
:1072B0008246129884F82300C4F800A018986060F1
:1072C000A4F824804FF0000908E0002104F1380000
:1072D00040F8291009F1010000F0FF09B9F1000F91
:1072E000F3D0204600F03AF800BF00BFFAF792FF53
:1072F000029000BFFBF758FF00BF94F8230000F096
:10730000E9FC204600F052FD12480088401C11495B
:10731000088011480078012809D000BFFBF75EFF04
:1073200000BF0298FAF77AFF00BF00BF66E700BF10
:10733000FBF754FF00BF0298FAF770FF00BF00BFD1
:10734000FFF78AFE00BF59E7240000209CD6000802
:107350003C070020440000202C00002010B504460B
:107360000348006818B1204601490968884710BDE4
:107370000400002070B504460D46002644480078FD
:10738000002803DD47F24E10288070BD414884423A
:1073900003D147F24C102880F7E79CB900BF00BF2B
:1073A000FAF738FF064600BFFBF7FEFE00BF3A487B
:1073B000046800BFFBF712FF00BF3046FAF72EFF4C
:1073C00000BF00BF00BF00BFFAF724FF064600BFA2
:1073D000FBF7EAFE00BF94F8220008282DD2DFE870
:1073E00000F004090E10080A0F11204600F0FCFC02
:1073F00030E02FE000BF204600F02CFF2AE000BF65
:1074000000BF00BF94F82000082810D2DFE800F089
:1074100004070508090A0B0600BF00BF08E000BF0B
:1074200000BF00BF00BF204600F088FB00E000BFA7
:1074300000BF204600F00EFF0CE000BFFBF7CEFEC1
:1074400000BF3046FAF7EAFE00BF00BF46F62D60E7
:1074500028809AE700BF204600F022F80F480088F5
:10746000401E0E490880204600F024FDFF2084F8CD
:10747000220000BFFBF7B2FE00BF3046FAF7CEFE97
:1074800000BF00BF00202880FFF7E6FD00BF7CE7BB
:10749000240000203C070020580000204400002069
:1074A00010B504460348006818B120460149096830
:1074B000884710BD0800002010B504460348006846
:1074C00018B1204601490968884710BD0C0000200A
:1074D0002DE9F04780460E4614461D464FF0000940
:1074E00071480078002805DD46F2AE1028800020A3
:1074F000BDE8F0871EB1B6F5004F02D100E000BF35
:1075000004E045F6256028800020F1E700BF0CB1BB
:107510000020206000BF00BFFAF77CFE814600BF5C
:10752000FBF742FE00BF61480068C06A90B35F4845
:107530000068C06A401E5D490968C8625B4800680F
:10754000C76A1CB159480068806A2060FBF770FE6A
:1075500056490968896A401A544909688865534838
:107560000068C06D51490968896D884205D24F484D
:107570000068806D4D490968C86500BFFBF72EFEA5
:1075800000BF4846FAF74AFE00BF00BF002028802F
:107590003846ADE7FFE706F4004068B100BFFBF7EF
:1075A0001DFE00BF4846FAF739FE00BF00BF46F295
:1075B000B010288000209BE73D48007800280DDDB2
:1075C00000BFFBF70BFE00BF4846FAF727FE00BFDF
:1075D00000BF46F663502880002089E74346072213
:1075E0000021084600F036FA00BFFBF7F7FD00BFA8
:1075F0004846FAF713FE00BF00BFFFF72DFD00BF9E
:1076000000BFFAF707FE814600BFFBF7CDFD00BFC4
:107610002648006890F8210020B1012821D00328D5
:107620002FD127E0D4B121480068806A2060FBF7A1
:10763000FFFD1E490968896A401A1C490968886566
:107640001A480068C06D19490968896D884205D2D9
:1076500016480068806D15490968C86500202880B3
:1076600013E01CB111480068806A206046F2A9103E
:1076700028800AE00CB10020206047F2D920288041
:1076800003E046F62E60288000BF00BF0748006870
:10769000C76A00BFFBF7A2FD00BF4846FAF7BEFD70
:1076A00000BF00BF384623E7240000205800002018
:1076B0003C0000202DE9F04106460D4614461DB160
:1076C000B5F5004F02D100E000BF05E045F62560AA
:1076D00020800020BDE8F08100BFFBF7A9FD8046B7
:1076E000234642462946304600F024FC07463846E9
:1076F000F0E70000F0B50446DDE9055602EB850031
:1077000020F007004FF0807C071F3846C7F800C004
:10771000071F38463C60DFF89CC0071F3846C7F893
:1077200000C04FF0123C071F3846C7F800C04FF0AA
:10773000033C071F3846C7F800C04FF0023C071F44
:107740003846C7F800C0071F38463B60071F384659
:1077500039604FF0113C071F3846C7F800C04FF0A2
:10776000103C071F3846C7F800C04FF0093C071F00
:107770003846C7F800C04FF0083C071F3846C7F826
:1077800000C04FF0073C071F3846C7F800C04FF055
:10779000063C071F3846C7F800C04FF0053C071FDE
:1077A0003846C7F800C04FF0043C071F3846C7F8FA
:1077B00000C0F0BD1D7F000870B51F48006810B103
:1077C0001D4800688047FBF733FD04461B480068EE
:1077D0001B490968884210D018480068C06C201AFC
:1077E00016490968886415480068006D13490968DE
:1077F000896C084411490968086511480068C46427
:10780000FBF7BCFC05460D480068006EA84202D29A
:107810000A480068056609480068406E0949096819
:10782000884204D207480068044909684866002075
:107830000449086070BD00001800002058000020B6
:107840005C000020380000202DE9F04105460E467E
:10785000144600272A480078002804DD47F27520E6
:107860002080BDE8F08127480078002803DD46F637
:1078700063502080F5E736B1022E05D0042E0AD0E1
:10788000082E09D101E000BF00BF1DB947F27E20DC
:107890002080E6E704E003E045F625602080E0E78D
:1078A00000BF00BF00BFFAF7B5FC074600BFFBF7FB
:1078B0007BFC00BF2346324629461348006800F08F
:1078C0006BFC208848B100BFFBF788FC00BF38463E
:1078D000FAF7A4FC00BF00BFC3E70B48006800F044
:1078E00083FA00BFFBF77AFC00BF3846FAF796FC34
:1078F00000BF00BFFFF7B0FB0020208000BFB0E753
:10790000240000203C0000205800002008B500F0B2
:1079100009F86A4600210248FFF7CCFE08BD0000C6
:107920002409002010B50348006810B10148006820
:10793000804710BD1C00002010B5002400BF00BF10
:10794000FAF768FC044600BFFBF72EFC00BF0948AD
:107950000078401C0749087000BFFBF73FFC00BFE0
:107960002046FAF75BFC00BF00BFFFF7CFFFFFF731
:1079700007FB10BD2400002001464A1E4FF0E02303
:107980005A61084A106820F07F4000BF10601A4614
:10799000126942F005021A611A46126942F00202A7
:1079A0001A61704720ED00E0002418E000BF00BF1E
:1079B000FAF730FC044600BFFBF7F6FB00BF0848AF
:1079C0000068401C0649086000BFFBF707FC00BFC9
:1079D0002046FAF723FC00BF00BFFFF72DFAE5E7CA
:1079E0002000002010B58AB0044600200E4908602F
:1079F0000B2000210591CDE90704069108460B49AB
:107A000009680B4A12680B4B1B68CDE90132CDE9BE
:107A100003101F200023084A08A100900C48FFF71C
:107A2000DBFB0AB010BD00002000002048D6000893
:107A300044D6000840D60008A979000875432F4FA6
:107A4000532D4949492049646C65205461736B008A
:107A50003C0700202DE9F04105460C4616461F461E
:107A60001248006880F8206000201049096881F8F9
:107A7000210039460D48006800F0FAF96CB104F1B4
:107A80000408EC60012229460848006800F010F85C
:107A90002946404600F01FF806E000200349096827
:107AA000C88402490968C861BDE8F0815800002017
:107AB00010B5C284C16100230AE000244C600C6050
:107AC0000C614C610C83CC61886020315C1CA3B2DA
:107AD0009342F2DB10BDF0B58E6896F8235007890B
